{"abi":[{"inputs":[{"internalType":"address","name":"creatorAddress","type":"address"},{"internalType":"uint256","name":"minimum","type":"uint256"}],"stateMutability":"nonpayable","type":"constructor"},{"inputs":[{"internalType":"address","name":"","type":"address"},{"internalType":"uint256","name":"","type":"uint256"}],"name":"approvals","outputs":[{"internalType":"bool","name":"","type":"bool"}],"stateMutability":"view","type":"function"},{"inputs":[{"internalType":"uint256","name":"requestIndex","type":"uint256"}],"name":"approveRequest","outputs":[],"stateMutability":"nonpayable","type":"function"},{"inputs":[{"internalType":"address","name":"","type":"address"}],"name":"approvers","outputs":[{"internalType":"bool","name":"","type":"bool"}],"stateMutability":"view","type":"function"},{"inputs":[],"name":"approversCount","outputs":[{"internalType":"uint256","name":"","type":"uint256"}],"stateMutability":"view","type":"function"},{"inputs":[],"name":"contribute","outputs":[],"stateMutability":"payable","type":"function"},{"inputs":[{"internalType":"string","name":"description","type":"string"},{"internalType":"uint256","name":"value","type":"uint256"},{"internalType":"address payable","name":"recipient","type":"address"}],"name":"createPaymentRequest","outputs":[],"stateMutability":"nonpayable","type":"function"},{"inputs":[{"internalType":"uint256","name":"requestIndex","type":"uint256"}],"name":"finalizeRequest","outputs":[],"stateMutability":"nonpayable","type":"function"},{"inputs":[],"name":"getAllRequests","outputs":[{"components":[{"internalType":"string","name":"description","type":"string"},{"internalType":"uint256","name":"value","type":"uint256"},{"internalType":"address payable","name":"recipient","type":"address"},{"internalType":"bool","name":"complete","type":"bool"},{"internalType":"uint256","name":"approvalCount","type":"uint256"}],"internalType":"struct Campaign.PaymentRequest[]","name":"","type":"tuple[]"}],"stateMutability":"view","type":"function"},{"inputs":[],"name":"getRequestsCount","outputs":[{"internalType":"uint256","name":"","type":"uint256"}],"stateMutability":"view","type":"function"},{"inputs":[],"name":"getSummary","outputs":[{"internalType":"uint256","name":"","type":"uint256"},{"internalType":"uint256","name":"","type":"uint256"},{"internalType":"uint256","name":"","type":"uint256"},{"internalType":"uint256","name":"","type":"uint256"},{"internalType":"address","name":"","type":"address"}],"stateMutability":"view","type":"function"},{"inputs":[],"name":"manager","outputs":[{"internalType":"address","name":"","type":"address"}],"stateMutability":"view","type":"function"},{"inputs":[],"name":"minimumContribution","outputs":[{"internalType":"uint256","name":"","type":"uint256"}],"stateMutability":"view","type":"function"},{"inputs":[{"internalType":"uint256","name":"","type":"uint256"}],"name":"paymentRequests","outputs":[{"internalType":"string","name":"description","type":"string"},{"internalType":"uint256","name":"value","type":"uint256"},{"internalType":"address payable","name":"recipient","type":"address"},{"internalType":"bool","name":"complete","type":"bool"},{"internalType":"uint256","name":"approvalCount","type":"uint256"}],"stateMutability":"view","type":"function"}],"devdoc":{"kind":"dev","methods":{},"version":1},"evm":{"assembly":"    /* \"Campaign.sol\":448:2880  contract Campaign {... */\n  mstore(0x40, 0x80)\n    /* \"Campaign.sol\":991:1121  constructor(address creatorAddress, uint minimum) {... */\n  callvalue\n  dup1\n  iszero\n  tag_1\n  jumpi\n  0x00\n  dup1\n  revert\ntag_1:\n  pop\n  mload(0x40)\n  sub(codesize, bytecodeSize)\n  dup1\n  bytecodeSize\n  dup4\n  codecopy\n  dup2\n  dup2\n  add\n  0x40\n  mstore\n  dup2\n  add\n  swap1\n  tag_2\n  swap2\n  swap1\n  tag_3\n  jump\t// in\ntag_2:\n    /* \"Campaign.sol\":1061:1075  creatorAddress */\n  dup2\n    /* \"Campaign.sol\":1051:1058  manager */\n  0x01\n  0x00\n    /* \"Campaign.sol\":1051:1075  manager = creatorAddress */\n  0x0100\n  exp\n  dup2\n  sload\n  dup2\n  0xffffffffffffffffffffffffffffffffffffffff\n  mul\n  not\n  and\n  swap1\n  dup4\n  0xffffffffffffffffffffffffffffffffffffffff\n  and\n  mul\n  or\n  swap1\n  sstore\n  pop\n    /* \"Campaign.sol\":1107:1114  minimum */\n  dup1\n    /* \"Campaign.sol\":1085:1104  minimumContribution */\n  0x02\n    /* \"Campaign.sol\":1085:1114  minimumContribution = minimum */\n  dup2\n  swap1\n  sstore\n  pop\n    /* \"Campaign.sol\":991:1121  constructor(address creatorAddress, uint minimum) {... */\n  pop\n  pop\n    /* \"Campaign.sol\":448:2880  contract Campaign {... */\n  jump(tag_6)\n    /* \"#utility.yul\":88:205   */\ntag_8:\n    /* \"#utility.yul\":197:198   */\n  0x00\n    /* \"#utility.yul\":194:195   */\n  dup1\n    /* \"#utility.yul\":187:199   */\n  revert\n    /* \"#utility.yul\":334:460   */\ntag_10:\n    /* \"#utility.yul\":371:378   */\n  0x00\n    /* \"#utility.yul\":411:453   */\n  0xffffffffffffffffffffffffffffffffffffffff\n    /* \"#utility.yul\":404:409   */\n  dup3\n    /* \"#utility.yul\":400:454   */\n  and\n    /* \"#utility.yul\":389:454   */\n  swap1\n  pop\n    /* \"#utility.yul\":334:460   */\n  swap2\n  swap1\n  pop\n  jump\t// out\n    /* \"#utility.yul\":466:562   */\ntag_11:\n    /* \"#utility.yul\":503:510   */\n  0x00\n    /* \"#utility.yul\":532:556   */\n  tag_23\n    /* \"#utility.yul\":550:555   */\n  dup3\n    /* \"#utility.yul\":532:556   */\n  tag_10\n  jump\t// in\ntag_23:\n    /* \"#utility.yul\":521:556   */\n  swap1\n  pop\n    /* \"#utility.yul\":466:562   */\n  swap2\n  swap1\n  pop\n  jump\t// out\n    /* \"#utility.yul\":568:690   */\ntag_12:\n    /* \"#utility.yul\":641:665   */\n  tag_25\n    /* \"#utility.yul\":659:664   */\n  dup2\n    /* \"#utility.yul\":641:665   */\n  tag_11\n  jump\t// in\ntag_25:\n    /* \"#utility.yul\":634:639   */\n  dup2\n    /* \"#utility.yul\":631:666   */\n  eq\n    /* \"#utility.yul\":621:684   */\n  tag_26\n  jumpi\n    /* \"#utility.yul\":680:681   */\n  0x00\n    /* \"#utility.yul\":677:678   */\n  dup1\n    /* \"#utility.yul\":670:682   */\n  revert\n    /* \"#utility.yul\":621:684   */\ntag_26:\n    /* \"#utility.yul\":568:690   */\n  pop\n  jump\t// out\n    /* \"#utility.yul\":696:839   */\ntag_13:\n    /* \"#utility.yul\":753:758   */\n  0x00\n    /* \"#utility.yul\":784:790   */\n  dup2\n    /* \"#utility.yul\":778:791   */\n  mload\n    /* \"#utility.yul\":769:791   */\n  swap1\n  pop\n    /* \"#utility.yul\":800:833   */\n  tag_28\n    /* \"#utility.yul\":827:832   */\n  dup2\n    /* \"#utility.yul\":800:833   */\n  tag_12\n  jump\t// in\ntag_28:\n    /* \"#utility.yul\":696:839   */\n  swap3\n  swap2\n  pop\n  pop\n  jump\t// out\n    /* \"#utility.yul\":845:922   */\ntag_14:\n    /* \"#utility.yul\":882:889   */\n  0x00\n    /* \"#utility.yul\":911:916   */\n  dup2\n    /* \"#utility.yul\":900:916   */\n  swap1\n  pop\n    /* \"#utility.yul\":845:922   */\n  swap2\n  swap1\n  pop\n  jump\t// out\n    /* \"#utility.yul\":928:1050   */\ntag_15:\n    /* \"#utility.yul\":1001:1025   */\n  tag_31\n    /* \"#utility.yul\":1019:1024   */\n  dup2\n    /* \"#utility.yul\":1001:1025   */\n  tag_14\n  jump\t// in\ntag_31:\n    /* \"#utility.yul\":994:999   */\n  dup2\n    /* \"#utility.yul\":991:1026   */\n  eq\n    /* \"#utility.yul\":981:1044   */\n  tag_32\n  jumpi\n    /* \"#utility.yul\":1040:1041   */\n  0x00\n    /* \"#utility.yul\":1037:1038   */\n  dup1\n    /* \"#utility.yul\":1030:1042   */\n  revert\n    /* \"#utility.yul\":981:1044   */\ntag_32:\n    /* \"#utility.yul\":928:1050   */\n  pop\n  jump\t// out\n    /* \"#utility.yul\":1056:1199   */\ntag_16:\n    /* \"#utility.yul\":1113:1118   */\n  0x00\n    /* \"#utility.yul\":1144:1150   */\n  dup2\n    /* \"#utility.yul\":1138:1151   */\n  mload\n    /* \"#utility.yul\":1129:1151   */\n  swap1\n  pop\n    /* \"#utility.yul\":1160:1193   */\n  tag_34\n    /* \"#utility.yul\":1187:1192   */\n  dup2\n    /* \"#utility.yul\":1160:1193   */\n  tag_15\n  jump\t// in\ntag_34:\n    /* \"#utility.yul\":1056:1199   */\n  swap3\n  swap2\n  pop\n  pop\n  jump\t// out\n    /* \"#utility.yul\":1205:1712   */\ntag_3:\n    /* \"#utility.yul\":1284:1290   */\n  0x00\n    /* \"#utility.yul\":1292:1298   */\n  dup1\n    /* \"#utility.yul\":1341:1343   */\n  0x40\n    /* \"#utility.yul\":1329:1338   */\n  dup4\n    /* \"#utility.yul\":1320:1327   */\n  dup6\n    /* \"#utility.yul\":1316:1339   */\n  sub\n    /* \"#utility.yul\":1312:1344   */\n  slt\n    /* \"#utility.yul\":1309:1428   */\n  iszero\n  tag_36\n  jumpi\n    /* \"#utility.yul\":1347:1426   */\n  tag_37\n  tag_8\n  jump\t// in\ntag_37:\n    /* \"#utility.yul\":1309:1428   */\ntag_36:\n    /* \"#utility.yul\":1467:1468   */\n  0x00\n    /* \"#utility.yul\":1492:1556   */\n  tag_38\n    /* \"#utility.yul\":1548:1555   */\n  dup6\n    /* \"#utility.yul\":1539:1545   */\n  dup3\n    /* \"#utility.yul\":1528:1537   */\n  dup7\n    /* \"#utility.yul\":1524:1546   */\n  add\n    /* \"#utility.yul\":1492:1556   */\n  tag_13\n  jump\t// in\ntag_38:\n    /* \"#utility.yul\":1482:1556   */\n  swap3\n  pop\n    /* \"#utility.yul\":1438:1566   */\n  pop\n    /* \"#utility.yul\":1605:1607   */\n  0x20\n    /* \"#utility.yul\":1631:1695   */\n  tag_39\n    /* \"#utility.yul\":1687:1694   */\n  dup6\n    /* \"#utility.yul\":1678:1684   */\n  dup3\n    /* \"#utility.yul\":1667:1676   */\n  dup7\n    /* \"#utility.yul\":1663:1685   */\n  add\n    /* \"#utility.yul\":1631:1695   */\n  tag_16\n  jump\t// in\ntag_39:\n    /* \"#utility.yul\":1621:1695   */\n  swap2\n  pop\n    /* \"#utility.yul\":1576:1705   */\n  pop\n    /* \"#utility.yul\":1205:1712   */\n  swap3\n  pop\n  swap3\n  swap1\n  pop\n  jump\t// out\n    /* \"Campaign.sol\":448:2880  contract Campaign {... */\ntag_6:\n  dataSize(sub_0)\n  dup1\n  dataOffset(sub_0)\n  0x00\n  codecopy\n  0x00\n  return\nstop\n\nsub_0: assembly {\n        /* \"Campaign.sol\":448:2880  contract Campaign {... */\n      mstore(0x40, 0x80)\n      jumpi(tag_1, lt(calldatasize, 0x04))\n      shr(0xe0, calldataload(0x00))\n      dup1\n      0x937e09b1\n      gt\n      tag_15\n      jumpi\n      dup1\n      0xd7bb99ba\n      gt\n      tag_16\n      jumpi\n      dup1\n      0xd7bb99ba\n      eq\n      tag_11\n      jumpi\n      dup1\n      0xd7d1bbdb\n      eq\n      tag_12\n      jumpi\n      dup1\n      0xfb1a002a\n      eq\n      tag_13\n      jumpi\n      dup1\n      0xffabc673\n      eq\n      tag_14\n      jumpi\n      jump(tag_1)\n    tag_16:\n      dup1\n      0x937e09b1\n      eq\n      tag_8\n      jumpi\n      dup1\n      0xa87f62e4\n      eq\n      tag_9\n      jumpi\n      dup1\n      0xd4358800\n      eq\n      tag_10\n      jumpi\n      jump(tag_1)\n    tag_15:\n      dup1\n      0x03441006\n      eq\n      tag_2\n      jumpi\n      dup1\n      0x0a144391\n      eq\n      tag_3\n      jumpi\n      dup1\n      0x3410452a\n      eq\n      tag_4\n      jumpi\n      dup1\n      0x4051ddac\n      eq\n      tag_5\n      jumpi\n      dup1\n      0x481c6a75\n      eq\n      tag_6\n      jumpi\n      dup1\n      0x82fde093\n      eq\n      tag_7\n      jumpi\n    tag_1:\n      0x00\n      dup1\n      revert\n        /* \"Campaign.sol\":2060:2385  function finalizeRequest(uint requestIndex) public restricted {... */\n    tag_2:\n      callvalue\n      dup1\n      iszero\n      tag_17\n      jumpi\n      0x00\n      dup1\n      revert\n    tag_17:\n      pop\n      tag_18\n      0x04\n      dup1\n      calldatasize\n      sub\n      dup2\n      add\n      swap1\n      tag_19\n      swap2\n      swap1\n      tag_20\n      jump\t// in\n    tag_19:\n      tag_21\n      jump\t// in\n    tag_18:\n      stop\n        /* \"Campaign.sol\":761:802  mapping(address => bool) public approvers */\n    tag_3:\n      callvalue\n      dup1\n      iszero\n      tag_22\n      jumpi\n      0x00\n      dup1\n      revert\n    tag_22:\n      pop\n      tag_23\n      0x04\n      dup1\n      calldatasize\n      sub\n      dup2\n      add\n      swap1\n      tag_24\n      swap2\n      swap1\n      tag_25\n      jump\t// in\n    tag_24:\n      tag_26\n      jump\t// in\n    tag_23:\n      mload(0x40)\n      tag_27\n      swap2\n      swap1\n      tag_28\n      jump\t// in\n    tag_27:\n      mload(0x40)\n      dup1\n      swap2\n      sub\n      swap1\n      return\n        /* \"Campaign.sol\":2660:2761  function getRequestsCount() public view returns (uint) {... */\n    tag_4:\n      callvalue\n      dup1\n      iszero\n      tag_29\n      jumpi\n      0x00\n      dup1\n      revert\n    tag_29:\n      pop\n      tag_30\n      tag_31\n      jump\t// in\n    tag_30:\n      mload(0x40)\n      tag_32\n      swap2\n      swap1\n      tag_33\n      jump\t// in\n    tag_32:\n      mload(0x40)\n      dup1\n      swap2\n      sub\n      swap1\n      return\n        /* \"Campaign.sol\":2391:2654  function getSummary() public view returns (uint, uint, uint, uint, address) {... */\n    tag_5:\n      callvalue\n      dup1\n      iszero\n      tag_34\n      jumpi\n      0x00\n      dup1\n      revert\n    tag_34:\n      pop\n      tag_35\n      tag_36\n      jump\t// in\n    tag_35:\n      mload(0x40)\n      tag_37\n      swap6\n      swap5\n      swap4\n      swap3\n      swap2\n      swap1\n      tag_38\n      jump\t// in\n    tag_37:\n      mload(0x40)\n      dup1\n      swap2\n      sub\n      swap1\n      return\n        /* \"Campaign.sol\":696:718  address public manager */\n    tag_6:\n      callvalue\n      dup1\n      iszero\n      tag_39\n      jumpi\n      0x00\n      dup1\n      revert\n    tag_39:\n      pop\n      tag_40\n      tag_41\n      jump\t// in\n    tag_40:\n      mload(0x40)\n      tag_42\n      swap2\n      swap1\n      tag_43\n      jump\t// in\n    tag_42:\n      mload(0x40)\n      dup1\n      swap2\n      sub\n      swap1\n      return\n        /* \"Campaign.sol\":808:834  uint public approversCount */\n    tag_7:\n      callvalue\n      dup1\n      iszero\n      tag_44\n      jumpi\n      0x00\n      dup1\n      revert\n    tag_44:\n      pop\n      tag_45\n      tag_46\n      jump\t// in\n    tag_45:\n      mload(0x40)\n      tag_47\n      swap2\n      swap1\n      tag_33\n      jump\t// in\n    tag_47:\n      mload(0x40)\n      dup1\n      swap2\n      sub\n      swap1\n      return\n        /* \"Campaign.sol\":724:755  uint public minimumContribution */\n    tag_8:\n      callvalue\n      dup1\n      iszero\n      tag_48\n      jumpi\n      0x00\n      dup1\n      revert\n    tag_48:\n      pop\n      tag_49\n      tag_50\n      jump\t// in\n    tag_49:\n      mload(0x40)\n      tag_51\n      swap2\n      swap1\n      tag_33\n      jump\t// in\n    tag_51:\n      mload(0x40)\n      dup1\n      swap2\n      sub\n      swap1\n      return\n        /* \"Campaign.sol\":1292:1722  function createPaymentRequest(string memory description, uint value, address payable recipient) public restricted {... */\n    tag_9:\n      callvalue\n      dup1\n      iszero\n      tag_52\n      jumpi\n      0x00\n      dup1\n      revert\n    tag_52:\n      pop\n      tag_53\n      0x04\n      dup1\n      calldatasize\n      sub\n      dup2\n      add\n      swap1\n      tag_54\n      swap2\n      swap1\n      tag_55\n      jump\t// in\n    tag_54:\n      tag_56\n      jump\t// in\n    tag_53:\n      stop\n        /* \"Campaign.sol\":651:690  PaymentRequest[] public paymentRequests */\n    tag_10:\n      callvalue\n      dup1\n      iszero\n      tag_57\n      jumpi\n      0x00\n      dup1\n      revert\n    tag_57:\n      pop\n      tag_58\n      0x04\n      dup1\n      calldatasize\n      sub\n      dup2\n      add\n      swap1\n      tag_59\n      swap2\n      swap1\n      tag_20\n      jump\t// in\n    tag_59:\n      tag_60\n      jump\t// in\n    tag_58:\n      mload(0x40)\n      tag_61\n      swap6\n      swap5\n      swap4\n      swap3\n      swap2\n      swap1\n      tag_62\n      jump\t// in\n    tag_61:\n      mload(0x40)\n      dup1\n      swap2\n      sub\n      swap1\n      return\n        /* \"Campaign.sol\":1127:1286  function contribute() public payable {... */\n    tag_11:\n      tag_63\n      tag_64\n      jump\t// in\n    tag_63:\n      stop\n        /* \"Campaign.sol\":1728:2054  function approveRequest(uint requestIndex) public{... */\n    tag_12:\n      callvalue\n      dup1\n      iszero\n      tag_65\n      jumpi\n      0x00\n      dup1\n      revert\n    tag_65:\n      pop\n      tag_66\n      0x04\n      dup1\n      calldatasize\n      sub\n      dup2\n      add\n      swap1\n      tag_67\n      swap2\n      swap1\n      tag_20\n      jump\t// in\n    tag_67:\n      tag_68\n      jump\t// in\n    tag_66:\n      stop\n        /* \"Campaign.sol\":2767:2878  function getAllRequests() public view returns (PaymentRequest[] memory) {... */\n    tag_13:\n      callvalue\n      dup1\n      iszero\n      tag_69\n      jumpi\n      0x00\n      dup1\n      revert\n    tag_69:\n      pop\n      tag_70\n      tag_71\n      jump\t// in\n    tag_70:\n      mload(0x40)\n      tag_72\n      swap2\n      swap1\n      tag_73\n      jump\t// in\n    tag_72:\n      mload(0x40)\n      dup1\n      swap2\n      sub\n      swap1\n      return\n        /* \"Campaign.sol\":840:898  mapping(address => mapping(uint => bool)) public approvals */\n    tag_14:\n      callvalue\n      dup1\n      iszero\n      tag_74\n      jumpi\n      0x00\n      dup1\n      revert\n    tag_74:\n      pop\n      tag_75\n      0x04\n      dup1\n      calldatasize\n      sub\n      dup2\n      add\n      swap1\n      tag_76\n      swap2\n      swap1\n      tag_77\n      jump\t// in\n    tag_76:\n      tag_78\n      jump\t// in\n    tag_75:\n      mload(0x40)\n      tag_79\n      swap2\n      swap1\n      tag_28\n      jump\t// in\n    tag_79:\n      mload(0x40)\n      dup1\n      swap2\n      sub\n      swap1\n      return\n        /* \"Campaign.sol\":2060:2385  function finalizeRequest(uint requestIndex) public restricted {... */\n    tag_21:\n        /* \"Campaign.sol\":959:966  manager */\n      0x01\n      0x00\n      swap1\n      sload\n      swap1\n      0x0100\n      exp\n      swap1\n      div\n      0xffffffffffffffffffffffffffffffffffffffff\n      and\n        /* \"Campaign.sol\":945:966  msg.sender == manager */\n      0xffffffffffffffffffffffffffffffffffffffff\n      and\n        /* \"Campaign.sol\":945:955  msg.sender */\n      caller\n        /* \"Campaign.sol\":945:966  msg.sender == manager */\n      0xffffffffffffffffffffffffffffffffffffffff\n      and\n      eq\n        /* \"Campaign.sol\":937:967  require(msg.sender == manager) */\n      tag_81\n      jumpi\n      0x00\n      dup1\n      revert\n    tag_81:\n        /* \"Campaign.sol\":2132:2162  PaymentRequest storage request */\n      0x00\n        /* \"Campaign.sol\":2165:2180  paymentRequests */\n      dup1\n        /* \"Campaign.sol\":2181:2193  requestIndex */\n      dup3\n        /* \"Campaign.sol\":2165:2194  paymentRequests[requestIndex] */\n      dup2\n      sload\n      dup2\n      lt\n      tag_83\n      jumpi\n      tag_84\n      tag_85\n      jump\t// in\n    tag_84:\n    tag_83:\n      swap1\n      0x00\n      mstore\n      keccak256(0x00, 0x20)\n      swap1\n      0x04\n      mul\n      add\n        /* \"Campaign.sol\":2132:2194  PaymentRequest storage request = paymentRequests[requestIndex] */\n      swap1\n      pop\n        /* \"Campaign.sol\":2254:2255  2 */\n      0x02\n        /* \"Campaign.sol\":2237:2251  approversCount */\n      sload(0x04)\n        /* \"Campaign.sol\":2237:2255  approversCount / 2 */\n      tag_87\n      swap2\n      swap1\n      tag_88\n      jump\t// in\n    tag_87:\n        /* \"Campaign.sol\":2212:2219  request */\n      dup2\n        /* \"Campaign.sol\":2212:2233  request.approvalCount */\n      0x03\n      add\n      sload\n        /* \"Campaign.sol\":2212:2256  request.approvalCount > (approversCount / 2) */\n      gt\n        /* \"Campaign.sol\":2204:2257  require(request.approvalCount > (approversCount / 2)) */\n      tag_89\n      jumpi\n      0x00\n      dup1\n      revert\n    tag_89:\n        /* \"Campaign.sol\":2276:2283  request */\n      dup1\n        /* \"Campaign.sol\":2276:2292  request.complete */\n      0x02\n      add\n      0x14\n      swap1\n      sload\n      swap1\n      0x0100\n      exp\n      swap1\n      div\n      0xff\n      and\n        /* \"Campaign.sol\":2275:2292  !request.complete */\n      iszero\n        /* \"Campaign.sol\":2267:2293  require(!request.complete) */\n      tag_90\n      jumpi\n      0x00\n      dup1\n      revert\n    tag_90:\n        /* \"Campaign.sol\":2304:2311  request */\n      dup1\n        /* \"Campaign.sol\":2304:2321  request.recipient */\n      0x02\n      add\n      0x00\n      swap1\n      sload\n      swap1\n      0x0100\n      exp\n      swap1\n      div\n      0xffffffffffffffffffffffffffffffffffffffff\n      and\n        /* \"Campaign.sol\":2304:2330  request.recipient.transfer */\n      0xffffffffffffffffffffffffffffffffffffffff\n      and\n        /* \"Campaign.sol\":2304:2345  request.recipient.transfer(request.value) */\n      0x08fc\n        /* \"Campaign.sol\":2331:2338  request */\n      dup3\n        /* \"Campaign.sol\":2331:2344  request.value */\n      0x01\n      add\n      sload\n        /* \"Campaign.sol\":2304:2345  request.recipient.transfer(request.value) */\n      swap1\n      dup2\n      iszero\n      mul\n      swap1\n      mload(0x40)\n      0x00\n      mload(0x40)\n      dup1\n      dup4\n      sub\n      dup2\n      dup6\n      dup9\n      dup9\n      call\n      swap4\n      pop\n      pop\n      pop\n      pop\n      iszero\n      dup1\n      iszero\n      tag_92\n      jumpi\n      returndatasize\n      0x00\n      dup1\n      returndatacopy\n      revert(0x00, returndatasize)\n    tag_92:\n      pop\n        /* \"Campaign.sol\":2374:2378  true */\n      0x01\n        /* \"Campaign.sol\":2355:2362  request */\n      dup2\n        /* \"Campaign.sol\":2355:2371  request.complete */\n      0x02\n      add\n      0x14\n        /* \"Campaign.sol\":2355:2378  request.complete = true */\n      0x0100\n      exp\n      dup2\n      sload\n      dup2\n      0xff\n      mul\n      not\n      and\n      swap1\n      dup4\n      iszero\n      iszero\n      mul\n      or\n      swap1\n      sstore\n      pop\n        /* \"Campaign.sol\":2122:2385  {... */\n      pop\n        /* \"Campaign.sol\":2060:2385  function finalizeRequest(uint requestIndex) public restricted {... */\n      pop\n      jump\t// out\n        /* \"Campaign.sol\":761:802  mapping(address => bool) public approvers */\n    tag_26:\n      mstore(0x20, 0x03)\n      dup1\n      0x00\n      mstore\n      keccak256(0x00, 0x40)\n      0x00\n      swap2\n      pop\n      sload\n      swap1\n      0x0100\n      exp\n      swap1\n      div\n      0xff\n      and\n      dup2\n      jump\t// out\n        /* \"Campaign.sol\":2660:2761  function getRequestsCount() public view returns (uint) {... */\n    tag_31:\n        /* \"Campaign.sol\":2709:2713  uint */\n      0x00\n        /* \"Campaign.sol\":2732:2747  paymentRequests */\n      dup1\n        /* \"Campaign.sol\":2732:2754  paymentRequests.length */\n      dup1\n      sload\n      swap1\n      pop\n        /* \"Campaign.sol\":2725:2754  return paymentRequests.length */\n      swap1\n      pop\n        /* \"Campaign.sol\":2660:2761  function getRequestsCount() public view returns (uint) {... */\n      swap1\n      jump\t// out\n        /* \"Campaign.sol\":2391:2654  function getSummary() public view returns (uint, uint, uint, uint, address) {... */\n    tag_36:\n        /* \"Campaign.sol\":2434:2438  uint */\n      0x00\n        /* \"Campaign.sol\":2440:2444  uint */\n      dup1\n        /* \"Campaign.sol\":2446:2450  uint */\n      0x00\n        /* \"Campaign.sol\":2452:2456  uint */\n      dup1\n        /* \"Campaign.sol\":2458:2465  address */\n      0x00\n        /* \"Campaign.sol\":2498:2517  minimumContribution */\n      sload(0x02)\n        /* \"Campaign.sol\":2531:2552  address(this).balance */\n      selfbalance\n        /* \"Campaign.sol\":2566:2581  paymentRequests */\n      0x00\n        /* \"Campaign.sol\":2566:2588  paymentRequests.length */\n      dup1\n      sload\n      swap1\n      pop\n        /* \"Campaign.sol\":2602:2616  approversCount */\n      sload(0x04)\n        /* \"Campaign.sol\":2630:2637  manager */\n      0x01\n      0x00\n      swap1\n      sload\n      swap1\n      0x0100\n      exp\n      swap1\n      div\n      0xffffffffffffffffffffffffffffffffffffffff\n      and\n        /* \"Campaign.sol\":2477:2647  return (... */\n      swap5\n      pop\n      swap5\n      pop\n      swap5\n      pop\n      swap5\n      pop\n      swap5\n      pop\n        /* \"Campaign.sol\":2391:2654  function getSummary() public view returns (uint, uint, uint, uint, address) {... */\n      swap1\n      swap2\n      swap3\n      swap4\n      swap5\n      jump\t// out\n        /* \"Campaign.sol\":696:718  address public manager */\n    tag_41:\n      0x01\n      0x00\n      swap1\n      sload\n      swap1\n      0x0100\n      exp\n      swap1\n      div\n      0xffffffffffffffffffffffffffffffffffffffff\n      and\n      dup2\n      jump\t// out\n        /* \"Campaign.sol\":808:834  uint public approversCount */\n    tag_46:\n      sload(0x04)\n      dup2\n      jump\t// out\n        /* \"Campaign.sol\":724:755  uint public minimumContribution */\n    tag_50:\n      sload(0x02)\n      dup2\n      jump\t// out\n        /* \"Campaign.sol\":1292:1722  function createPaymentRequest(string memory description, uint value, address payable recipient) public restricted {... */\n    tag_56:\n        /* \"Campaign.sol\":959:966  manager */\n      0x01\n      0x00\n      swap1\n      sload\n      swap1\n      0x0100\n      exp\n      swap1\n      div\n      0xffffffffffffffffffffffffffffffffffffffff\n      and\n        /* \"Campaign.sol\":945:966  msg.sender == manager */\n      0xffffffffffffffffffffffffffffffffffffffff\n      and\n        /* \"Campaign.sol\":945:955  msg.sender */\n      caller\n        /* \"Campaign.sol\":945:966  msg.sender == manager */\n      0xffffffffffffffffffffffffffffffffffffffff\n      and\n      eq\n        /* \"Campaign.sol\":937:967  require(msg.sender == manager) */\n      tag_96\n      jumpi\n      0x00\n      dup1\n      revert\n    tag_96:\n        /* \"Campaign.sol\":1458:1487  PaymentRequest memory request */\n      0x00\n        /* \"Campaign.sol\":1491:1674  PaymentRequest({... */\n      mload(0x40)\n      dup1\n      0xa0\n      add\n      0x40\n      mstore\n      dup1\n        /* \"Campaign.sol\":1533:1544  description */\n      dup6\n        /* \"Campaign.sol\":1491:1674  PaymentRequest({... */\n      dup2\n      mstore\n      0x20\n      add\n        /* \"Campaign.sol\":1565:1570  value */\n      dup5\n        /* \"Campaign.sol\":1491:1674  PaymentRequest({... */\n      dup2\n      mstore\n      0x20\n      add\n        /* \"Campaign.sol\":1595:1604  recipient */\n      dup4\n        /* \"Campaign.sol\":1491:1674  PaymentRequest({... */\n      0xffffffffffffffffffffffffffffffffffffffff\n      and\n      dup2\n      mstore\n      0x20\n      add\n        /* \"Campaign.sol\":1628:1633  false */\n      0x00\n        /* \"Campaign.sol\":1491:1674  PaymentRequest({... */\n      iszero\n      iszero\n      dup2\n      mstore\n      0x20\n      add\n        /* \"Campaign.sol\":1662:1663  0 */\n      0x00\n        /* \"Campaign.sol\":1491:1674  PaymentRequest({... */\n      dup2\n      mstore\n      pop\n        /* \"Campaign.sol\":1458:1674  PaymentRequest memory request  = PaymentRequest({... */\n      swap1\n      pop\n        /* \"Campaign.sol\":1685:1700  paymentRequests */\n      0x00\n        /* \"Campaign.sol\":1706:1713  request */\n      dup2\n        /* \"Campaign.sol\":1685:1714  paymentRequests.push(request) */\n      swap1\n      dup1\n      0x01\n      dup2\n      sload\n      add\n      dup1\n      dup3\n      sstore\n      dup1\n      swap2\n      pop\n      pop\n      0x01\n      swap1\n      sub\n      swap1\n      0x00\n      mstore\n      keccak256(0x00, 0x20)\n      swap1\n      0x04\n      mul\n      add\n      0x00\n      swap1\n      swap2\n      swap1\n      swap2\n      swap1\n      swap2\n      pop\n      0x00\n      dup3\n      add\n      mload\n      dup2\n      0x00\n      add\n      swap1\n      dup1\n      mload\n      swap1\n      0x20\n      add\n      swap1\n      tag_99\n      swap3\n      swap2\n      swap1\n      tag_100\n      jump\t// in\n    tag_99:\n      pop\n      0x20\n      dup3\n      add\n      mload\n      dup2\n      0x01\n      add\n      sstore\n      0x40\n      dup3\n      add\n      mload\n      dup2\n      0x02\n      add\n      exp(0x0100, 0x00)\n      dup2\n      sload\n      dup2\n      0xffffffffffffffffffffffffffffffffffffffff\n      mul\n      not\n      and\n      swap1\n      dup4\n      0xffffffffffffffffffffffffffffffffffffffff\n      and\n      mul\n      or\n      swap1\n      sstore\n      pop\n      0x60\n      dup3\n      add\n      mload\n      dup2\n      0x02\n      add\n      exp(0x0100, 0x14)\n      dup2\n      sload\n      dup2\n      0xff\n      mul\n      not\n      and\n      swap1\n      dup4\n      iszero\n      iszero\n      mul\n      or\n      swap1\n      sstore\n      pop\n      0x80\n      dup3\n      add\n      mload\n      dup2\n      0x03\n      add\n      sstore\n      pop\n      pop\n        /* \"Campaign.sol\":1406:1722  {... */\n      pop\n        /* \"Campaign.sol\":1292:1722  function createPaymentRequest(string memory description, uint value, address payable recipient) public restricted {... */\n      pop\n      pop\n      pop\n      jump\t// out\n        /* \"Campaign.sol\":651:690  PaymentRequest[] public paymentRequests */\n    tag_60:\n      0x00\n      dup2\n      dup2\n      sload\n      dup2\n      lt\n      tag_101\n      jumpi\n      0x00\n      dup1\n      revert\n    tag_101:\n      swap1\n      0x00\n      mstore\n      keccak256(0x00, 0x20)\n      swap1\n      0x04\n      mul\n      add\n      0x00\n      swap2\n      pop\n      swap1\n      pop\n      dup1\n      0x00\n      add\n      dup1\n      sload\n      tag_103\n      swap1\n      tag_104\n      jump\t// in\n    tag_103:\n      dup1\n      0x1f\n      add\n      0x20\n      dup1\n      swap2\n      div\n      mul\n      0x20\n      add\n      mload(0x40)\n      swap1\n      dup2\n      add\n      0x40\n      mstore\n      dup1\n      swap3\n      swap2\n      swap1\n      dup2\n      dup2\n      mstore\n      0x20\n      add\n      dup3\n      dup1\n      sload\n      tag_105\n      swap1\n      tag_104\n      jump\t// in\n    tag_105:\n      dup1\n      iszero\n      tag_106\n      jumpi\n      dup1\n      0x1f\n      lt\n      tag_107\n      jumpi\n      0x0100\n      dup1\n      dup4\n      sload\n      div\n      mul\n      dup4\n      mstore\n      swap2\n      0x20\n      add\n      swap2\n      jump(tag_106)\n    tag_107:\n      dup3\n      add\n      swap2\n      swap1\n      0x00\n      mstore\n      keccak256(0x00, 0x20)\n      swap1\n    tag_108:\n      dup2\n      sload\n      dup2\n      mstore\n      swap1\n      0x01\n      add\n      swap1\n      0x20\n      add\n      dup1\n      dup4\n      gt\n      tag_108\n      jumpi\n      dup3\n      swap1\n      sub\n      0x1f\n      and\n      dup3\n      add\n      swap2\n    tag_106:\n      pop\n      pop\n      pop\n      pop\n      pop\n      swap1\n      dup1\n      0x01\n      add\n      sload\n      swap1\n      dup1\n      0x02\n      add\n      0x00\n      swap1\n      sload\n      swap1\n      0x0100\n      exp\n      swap1\n      div\n      0xffffffffffffffffffffffffffffffffffffffff\n      and\n      swap1\n      dup1\n      0x02\n      add\n      0x14\n      swap1\n      sload\n      swap1\n      0x0100\n      exp\n      swap1\n      div\n      0xff\n      and\n      swap1\n      dup1\n      0x03\n      add\n      sload\n      swap1\n      pop\n      dup6\n      jump\t// out\n        /* \"Campaign.sol\":1127:1286  function contribute() public payable {... */\n    tag_64:\n        /* \"Campaign.sol\":1195:1214  minimumContribution */\n      sload(0x02)\n        /* \"Campaign.sol\":1182:1191  msg.value */\n      callvalue\n        /* \"Campaign.sol\":1182:1214  msg.value >= minimumContribution */\n      lt\n      iszero\n        /* \"Campaign.sol\":1174:1215  require(msg.value >= minimumContribution) */\n      tag_110\n      jumpi\n      0x00\n      dup1\n      revert\n    tag_110:\n        /* \"Campaign.sol\":1249:1253  true */\n      0x01\n        /* \"Campaign.sol\":1225:1234  approvers */\n      0x03\n        /* \"Campaign.sol\":1225:1246  approvers[msg.sender] */\n      0x00\n        /* \"Campaign.sol\":1235:1245  msg.sender */\n      caller\n        /* \"Campaign.sol\":1225:1246  approvers[msg.sender] */\n      0xffffffffffffffffffffffffffffffffffffffff\n      and\n      0xffffffffffffffffffffffffffffffffffffffff\n      and\n      dup2\n      mstore\n      0x20\n      add\n      swap1\n      dup2\n      mstore\n      0x20\n      add\n      0x00\n      keccak256\n      0x00\n        /* \"Campaign.sol\":1225:1253  approvers[msg.sender] = true */\n      0x0100\n      exp\n      dup2\n      sload\n      dup2\n      0xff\n      mul\n      not\n      and\n      swap1\n      dup4\n      iszero\n      iszero\n      mul\n      or\n      swap1\n      sstore\n      pop\n        /* \"Campaign.sol\":1263:1277  approversCount */\n      0x04\n      0x00\n        /* \"Campaign.sol\":1263:1279  approversCount++ */\n      dup2\n      sload\n      dup1\n      swap3\n      swap2\n      swap1\n      tag_111\n      swap1\n      tag_112\n      jump\t// in\n    tag_111:\n      swap2\n      swap1\n      pop\n      sstore\n      pop\n        /* \"Campaign.sol\":1127:1286  function contribute() public payable {... */\n      jump\t// out\n        /* \"Campaign.sol\":1728:2054  function approveRequest(uint requestIndex) public{... */\n    tag_68:\n        /* \"Campaign.sol\":1795:1804  approvers */\n      0x03\n        /* \"Campaign.sol\":1795:1816  approvers[msg.sender] */\n      0x00\n        /* \"Campaign.sol\":1805:1815  msg.sender */\n      caller\n        /* \"Campaign.sol\":1795:1816  approvers[msg.sender] */\n      0xffffffffffffffffffffffffffffffffffffffff\n      and\n      0xffffffffffffffffffffffffffffffffffffffff\n      and\n      dup2\n      mstore\n      0x20\n      add\n      swap1\n      dup2\n      mstore\n      0x20\n      add\n      0x00\n      keccak256\n      0x00\n      swap1\n      sload\n      swap1\n      0x0100\n      exp\n      swap1\n      div\n      0xff\n      and\n        /* \"Campaign.sol\":1787:1817  require(approvers[msg.sender]) */\n      tag_114\n      jumpi\n      0x00\n      dup1\n      revert\n    tag_114:\n        /* \"Campaign.sol\":1827:1872  mapping(uint => bool) storage senderApprovals */\n      0x00\n        /* \"Campaign.sol\":1875:1884  approvals */\n      0x05\n        /* \"Campaign.sol\":1875:1896  approvals[msg.sender] */\n      0x00\n        /* \"Campaign.sol\":1885:1895  msg.sender */\n      caller\n        /* \"Campaign.sol\":1875:1896  approvals[msg.sender] */\n      0xffffffffffffffffffffffffffffffffffffffff\n      and\n      0xffffffffffffffffffffffffffffffffffffffff\n      and\n      dup2\n      mstore\n      0x20\n      add\n      swap1\n      dup2\n      mstore\n      0x20\n      add\n      0x00\n      keccak256\n        /* \"Campaign.sol\":1827:1896  mapping(uint => bool) storage senderApprovals = approvals[msg.sender] */\n      swap1\n      pop\n        /* \"Campaign.sol\":1915:1930  senderApprovals */\n      dup1\n        /* \"Campaign.sol\":1915:1944  senderApprovals[requestIndex] */\n      0x00\n        /* \"Campaign.sol\":1931:1943  requestIndex */\n      dup4\n        /* \"Campaign.sol\":1915:1944  senderApprovals[requestIndex] */\n      dup2\n      mstore\n      0x20\n      add\n      swap1\n      dup2\n      mstore\n      0x20\n      add\n      0x00\n      keccak256\n      0x00\n      swap1\n      sload\n      swap1\n      0x0100\n      exp\n      swap1\n      div\n      0xff\n      and\n        /* \"Campaign.sol\":1914:1944  !senderApprovals[requestIndex] */\n      iszero\n        /* \"Campaign.sol\":1906:1945  require(!senderApprovals[requestIndex]) */\n      tag_115\n      jumpi\n      0x00\n      dup1\n      revert\n    tag_115:\n        /* \"Campaign.sol\":1988:1992  true */\n      0x01\n        /* \"Campaign.sol\":1956:1971  senderApprovals */\n      dup2\n        /* \"Campaign.sol\":1956:1985  senderApprovals[requestIndex] */\n      0x00\n        /* \"Campaign.sol\":1972:1984  requestIndex */\n      dup5\n        /* \"Campaign.sol\":1956:1985  senderApprovals[requestIndex] */\n      dup2\n      mstore\n      0x20\n      add\n      swap1\n      dup2\n      mstore\n      0x20\n      add\n      0x00\n      keccak256\n      0x00\n        /* \"Campaign.sol\":1956:1992  senderApprovals[requestIndex] = true */\n      0x0100\n      exp\n      dup2\n      sload\n      dup2\n      0xff\n      mul\n      not\n      and\n      swap1\n      dup4\n      iszero\n      iszero\n      mul\n      or\n      swap1\n      sstore\n      pop\n        /* \"Campaign.sol\":2002:2017  paymentRequests */\n      0x00\n        /* \"Campaign.sol\":2018:2030  requestIndex */\n      dup3\n        /* \"Campaign.sol\":2002:2031  paymentRequests[requestIndex] */\n      dup2\n      sload\n      dup2\n      lt\n      tag_116\n      jumpi\n      tag_117\n      tag_85\n      jump\t// in\n    tag_117:\n    tag_116:\n      swap1\n      0x00\n      mstore\n      keccak256(0x00, 0x20)\n      swap1\n      0x04\n      mul\n      add\n        /* \"Campaign.sol\":2002:2045  paymentRequests[requestIndex].approvalCount */\n      0x03\n      add\n      0x00\n        /* \"Campaign.sol\":2002:2047  paymentRequests[requestIndex].approvalCount++ */\n      dup2\n      sload\n      dup1\n      swap3\n      swap2\n      swap1\n      tag_119\n      swap1\n      tag_112\n      jump\t// in\n    tag_119:\n      swap2\n      swap1\n      pop\n      sstore\n      pop\n        /* \"Campaign.sol\":1777:2054  {... */\n      pop\n        /* \"Campaign.sol\":1728:2054  function approveRequest(uint requestIndex) public{... */\n      pop\n      jump\t// out\n        /* \"Campaign.sol\":2767:2878  function getAllRequests() public view returns (PaymentRequest[] memory) {... */\n    tag_71:\n        /* \"Campaign.sol\":2814:2837  PaymentRequest[] memory */\n      0x60\n        /* \"Campaign.sol\":2856:2871  paymentRequests */\n      0x00\n        /* \"Campaign.sol\":2849:2871  return paymentRequests */\n      dup1\n      sload\n      dup1\n      0x20\n      mul\n      0x20\n      add\n      mload(0x40)\n      swap1\n      dup2\n      add\n      0x40\n      mstore\n      dup1\n      swap3\n      swap2\n      swap1\n      dup2\n      dup2\n      mstore\n      0x20\n      add\n      0x00\n      swap1\n    tag_121:\n      dup3\n      dup3\n      lt\n      iszero\n      tag_122\n      jumpi\n      dup4\n      dup3\n      swap1\n      0x00\n      mstore\n      keccak256(0x00, 0x20)\n      swap1\n      0x04\n      mul\n      add\n      mload(0x40)\n      dup1\n      0xa0\n      add\n      0x40\n      mstore\n      swap1\n      dup2\n      0x00\n      dup3\n      add\n      dup1\n      sload\n      tag_124\n      swap1\n      tag_104\n      jump\t// in\n    tag_124:\n      dup1\n      0x1f\n      add\n      0x20\n      dup1\n      swap2\n      div\n      mul\n      0x20\n      add\n      mload(0x40)\n      swap1\n      dup2\n      add\n      0x40\n      mstore\n      dup1\n      swap3\n      swap2\n      swap1\n      dup2\n      dup2\n      mstore\n      0x20\n      add\n      dup3\n      dup1\n      sload\n      tag_125\n      swap1\n      tag_104\n      jump\t// in\n    tag_125:\n      dup1\n      iszero\n      tag_126\n      jumpi\n      dup1\n      0x1f\n      lt\n      tag_127\n      jumpi\n      0x0100\n      dup1\n      dup4\n      sload\n      div\n      mul\n      dup4\n      mstore\n      swap2\n      0x20\n      add\n      swap2\n      jump(tag_126)\n    tag_127:\n      dup3\n      add\n      swap2\n      swap1\n      0x00\n      mstore\n      keccak256(0x00, 0x20)\n      swap1\n    tag_128:\n      dup2\n      sload\n      dup2\n      mstore\n      swap1\n      0x01\n      add\n      swap1\n      0x20\n      add\n      dup1\n      dup4\n      gt\n      tag_128\n      jumpi\n      dup3\n      swap1\n      sub\n      0x1f\n      and\n      dup3\n      add\n      swap2\n    tag_126:\n      pop\n      pop\n      pop\n      pop\n      pop\n      dup2\n      mstore\n      0x20\n      add\n      0x01\n      dup3\n      add\n      sload\n      dup2\n      mstore\n      0x20\n      add\n      0x02\n      dup3\n      add\n      0x00\n      swap1\n      sload\n      swap1\n      0x0100\n      exp\n      swap1\n      div\n      0xffffffffffffffffffffffffffffffffffffffff\n      and\n      0xffffffffffffffffffffffffffffffffffffffff\n      and\n      0xffffffffffffffffffffffffffffffffffffffff\n      and\n      dup2\n      mstore\n      0x20\n      add\n      0x02\n      dup3\n      add\n      0x14\n      swap1\n      sload\n      swap1\n      0x0100\n      exp\n      swap1\n      div\n      0xff\n      and\n      iszero\n      iszero\n      iszero\n      iszero\n      dup2\n      mstore\n      0x20\n      add\n      0x03\n      dup3\n      add\n      sload\n      dup2\n      mstore\n      pop\n      pop\n      dup2\n      mstore\n      0x20\n      add\n      swap1\n      0x01\n      add\n      swap1\n      jump(tag_121)\n    tag_122:\n      pop\n      pop\n      pop\n      pop\n      swap1\n      pop\n        /* \"Campaign.sol\":2767:2878  function getAllRequests() public view returns (PaymentRequest[] memory) {... */\n      swap1\n      jump\t// out\n        /* \"Campaign.sol\":840:898  mapping(address => mapping(uint => bool)) public approvals */\n    tag_78:\n      mstore(0x20, 0x05)\n      dup2\n      0x00\n      mstore\n      mstore(0x20, keccak256(0x00, 0x40))\n      dup1\n      0x00\n      mstore\n      keccak256(0x00, 0x40)\n      0x00\n      swap2\n      pop\n      swap2\n      pop\n      swap1\n      sload\n      swap1\n      0x0100\n      exp\n      swap1\n      div\n      0xff\n      and\n      dup2\n      jump\t// out\n    tag_100:\n      dup3\n      dup1\n      sload\n      tag_129\n      swap1\n      tag_104\n      jump\t// in\n    tag_129:\n      swap1\n      0x00\n      mstore\n      keccak256(0x00, 0x20)\n      swap1\n      0x1f\n      add\n      0x20\n      swap1\n      div\n      dup2\n      add\n      swap3\n      dup3\n      tag_131\n      jumpi\n      0x00\n      dup6\n      sstore\n      jump(tag_130)\n    tag_131:\n      dup3\n      0x1f\n      lt\n      tag_132\n      jumpi\n      dup1\n      mload\n      not(0xff)\n      and\n      dup4\n      dup1\n      add\n      or\n      dup6\n      sstore\n      jump(tag_130)\n    tag_132:\n      dup3\n      dup1\n      add\n      0x01\n      add\n      dup6\n      sstore\n      dup3\n      iszero\n      tag_130\n      jumpi\n      swap2\n      dup3\n      add\n    tag_133:\n      dup3\n      dup2\n      gt\n      iszero\n      tag_134\n      jumpi\n      dup3\n      mload\n      dup3\n      sstore\n      swap2\n      0x20\n      add\n      swap2\n      swap1\n      0x01\n      add\n      swap1\n      jump(tag_133)\n    tag_134:\n    tag_130:\n      pop\n      swap1\n      pop\n      tag_135\n      swap2\n      swap1\n      tag_136\n      jump\t// in\n    tag_135:\n      pop\n      swap1\n      jump\t// out\n    tag_136:\n    tag_137:\n      dup1\n      dup3\n      gt\n      iszero\n      tag_138\n      jumpi\n      0x00\n      dup2\n      0x00\n      swap1\n      sstore\n      pop\n      0x01\n      add\n      jump(tag_137)\n    tag_138:\n      pop\n      swap1\n      jump\t// out\n        /* \"#utility.yul\":7:82   */\n    tag_139:\n        /* \"#utility.yul\":40:46   */\n      0x00\n        /* \"#utility.yul\":73:75   */\n      0x40\n        /* \"#utility.yul\":67:76   */\n      mload\n        /* \"#utility.yul\":57:76   */\n      swap1\n      pop\n        /* \"#utility.yul\":7:82   */\n      swap1\n      jump\t// out\n        /* \"#utility.yul\":88:205   */\n    tag_140:\n        /* \"#utility.yul\":197:198   */\n      0x00\n        /* \"#utility.yul\":194:195   */\n      dup1\n        /* \"#utility.yul\":187:199   */\n      revert\n        /* \"#utility.yul\":211:328   */\n    tag_141:\n        /* \"#utility.yul\":320:321   */\n      0x00\n        /* \"#utility.yul\":317:318   */\n      dup1\n        /* \"#utility.yul\":310:322   */\n      revert\n        /* \"#utility.yul\":334:411   */\n    tag_142:\n        /* \"#utility.yul\":371:378   */\n      0x00\n        /* \"#utility.yul\":400:405   */\n      dup2\n        /* \"#utility.yul\":389:405   */\n      swap1\n      pop\n        /* \"#utility.yul\":334:411   */\n      swap2\n      swap1\n      pop\n      jump\t// out\n        /* \"#utility.yul\":417:539   */\n    tag_143:\n        /* \"#utility.yul\":490:514   */\n      tag_192\n        /* \"#utility.yul\":508:513   */\n      dup2\n        /* \"#utility.yul\":490:514   */\n      tag_142\n      jump\t// in\n    tag_192:\n        /* \"#utility.yul\":483:488   */\n      dup2\n        /* \"#utility.yul\":480:515   */\n      eq\n        /* \"#utility.yul\":470:533   */\n      tag_193\n      jumpi\n        /* \"#utility.yul\":529:530   */\n      0x00\n        /* \"#utility.yul\":526:527   */\n      dup1\n        /* \"#utility.yul\":519:531   */\n      revert\n        /* \"#utility.yul\":470:533   */\n    tag_193:\n        /* \"#utility.yul\":417:539   */\n      pop\n      jump\t// out\n        /* \"#utility.yul\":545:684   */\n    tag_144:\n        /* \"#utility.yul\":591:596   */\n      0x00\n        /* \"#utility.yul\":629:635   */\n      dup2\n        /* \"#utility.yul\":616:636   */\n      calldataload\n        /* \"#utility.yul\":607:636   */\n      swap1\n      pop\n        /* \"#utility.yul\":645:678   */\n      tag_195\n        /* \"#utility.yul\":672:677   */\n      dup2\n        /* \"#utility.yul\":645:678   */\n      tag_143\n      jump\t// in\n    tag_195:\n        /* \"#utility.yul\":545:684   */\n      swap3\n      swap2\n      pop\n      pop\n      jump\t// out\n        /* \"#utility.yul\":690:1019   */\n    tag_20:\n        /* \"#utility.yul\":749:755   */\n      0x00\n        /* \"#utility.yul\":798:800   */\n      0x20\n        /* \"#utility.yul\":786:795   */\n      dup3\n        /* \"#utility.yul\":777:784   */\n      dup5\n        /* \"#utility.yul\":773:796   */\n      sub\n        /* \"#utility.yul\":769:801   */\n      slt\n        /* \"#utility.yul\":766:885   */\n      iszero\n      tag_197\n      jumpi\n        /* \"#utility.yul\":804:883   */\n      tag_198\n      tag_140\n      jump\t// in\n    tag_198:\n        /* \"#utility.yul\":766:885   */\n    tag_197:\n        /* \"#utility.yul\":924:925   */\n      0x00\n        /* \"#utility.yul\":949:1002   */\n      tag_199\n        /* \"#utility.yul\":994:1001   */\n      dup5\n        /* \"#utility.yul\":985:991   */\n      dup3\n        /* \"#utility.yul\":974:983   */\n      dup6\n        /* \"#utility.yul\":970:992   */\n      add\n        /* \"#utility.yul\":949:1002   */\n      tag_144\n      jump\t// in\n    tag_199:\n        /* \"#utility.yul\":939:1002   */\n      swap2\n      pop\n        /* \"#utility.yul\":895:1012   */\n      pop\n        /* \"#utility.yul\":690:1019   */\n      swap3\n      swap2\n      pop\n      pop\n      jump\t// out\n        /* \"#utility.yul\":1025:1151   */\n    tag_145:\n        /* \"#utility.yul\":1062:1069   */\n      0x00\n        /* \"#utility.yul\":1102:1144   */\n      0xffffffffffffffffffffffffffffffffffffffff\n        /* \"#utility.yul\":1095:1100   */\n      dup3\n        /* \"#utility.yul\":1091:1145   */\n      and\n        /* \"#utility.yul\":1080:1145   */\n      swap1\n      pop\n        /* \"#utility.yul\":1025:1151   */\n      swap2\n      swap1\n      pop\n      jump\t// out\n        /* \"#utility.yul\":1157:1253   */\n    tag_146:\n        /* \"#utility.yul\":1194:1201   */\n      0x00\n        /* \"#utility.yul\":1223:1247   */\n      tag_202\n        /* \"#utility.yul\":1241:1246   */\n      dup3\n        /* \"#utility.yul\":1223:1247   */\n      tag_145\n      jump\t// in\n    tag_202:\n        /* \"#utility.yul\":1212:1247   */\n      swap1\n      pop\n        /* \"#utility.yul\":1157:1253   */\n      swap2\n      swap1\n      pop\n      jump\t// out\n        /* \"#utility.yul\":1259:1381   */\n    tag_147:\n        /* \"#utility.yul\":1332:1356   */\n      tag_204\n        /* \"#utility.yul\":1350:1355   */\n      dup2\n        /* \"#utility.yul\":1332:1356   */\n      tag_146\n      jump\t// in\n    tag_204:\n        /* \"#utility.yul\":1325:1330   */\n      dup2\n        /* \"#utility.yul\":1322:1357   */\n      eq\n        /* \"#utility.yul\":1312:1375   */\n      tag_205\n      jumpi\n        /* \"#utility.yul\":1371:1372   */\n      0x00\n        /* \"#utility.yul\":1368:1369   */\n      dup1\n        /* \"#utility.yul\":1361:1373   */\n      revert\n        /* \"#utility.yul\":1312:1375   */\n    tag_205:\n        /* \"#utility.yul\":1259:1381   */\n      pop\n      jump\t// out\n        /* \"#utility.yul\":1387:1526   */\n    tag_148:\n        /* \"#utility.yul\":1433:1438   */\n      0x00\n        /* \"#utility.yul\":1471:1477   */\n      dup2\n        /* \"#utility.yul\":1458:1478   */\n      calldataload\n        /* \"#utility.yul\":1449:1478   */\n      swap1\n      pop\n        /* \"#utility.yul\":1487:1520   */\n      tag_207\n        /* \"#utility.yul\":1514:1519   */\n      dup2\n        /* \"#utility.yul\":1487:1520   */\n      tag_147\n      jump\t// in\n    tag_207:\n        /* \"#utility.yul\":1387:1526   */\n      swap3\n      swap2\n      pop\n      pop\n      jump\t// out\n        /* \"#utility.yul\":1532:1861   */\n    tag_25:\n        /* \"#utility.yul\":1591:1597   */\n      0x00\n        /* \"#utility.yul\":1640:1642   */\n      0x20\n        /* \"#utility.yul\":1628:1637   */\n      dup3\n        /* \"#utility.yul\":1619:1626   */\n      dup5\n        /* \"#utility.yul\":1615:1638   */\n      sub\n        /* \"#utility.yul\":1611:1643   */\n      slt\n        /* \"#utility.yul\":1608:1727   */\n      iszero\n      tag_209\n      jumpi\n        /* \"#utility.yul\":1646:1725   */\n      tag_210\n      tag_140\n      jump\t// in\n    tag_210:\n        /* \"#utility.yul\":1608:1727   */\n    tag_209:\n        /* \"#utility.yul\":1766:1767   */\n      0x00\n        /* \"#utility.yul\":1791:1844   */\n      tag_211\n        /* \"#utility.yul\":1836:1843   */\n      dup5\n        /* \"#utility.yul\":1827:1833   */\n      dup3\n        /* \"#utility.yul\":1816:1825   */\n      dup6\n        /* \"#utility.yul\":1812:1834   */\n      add\n        /* \"#utility.yul\":1791:1844   */\n      tag_148\n      jump\t// in\n    tag_211:\n        /* \"#utility.yul\":1781:1844   */\n      swap2\n      pop\n        /* \"#utility.yul\":1737:1854   */\n      pop\n        /* \"#utility.yul\":1532:1861   */\n      swap3\n      swap2\n      pop\n      pop\n      jump\t// out\n        /* \"#utility.yul\":1867:1957   */\n    tag_149:\n        /* \"#utility.yul\":1901:1908   */\n      0x00\n        /* \"#utility.yul\":1944:1949   */\n      dup2\n        /* \"#utility.yul\":1937:1950   */\n      iszero\n        /* \"#utility.yul\":1930:1951   */\n      iszero\n        /* \"#utility.yul\":1919:1951   */\n      swap1\n      pop\n        /* \"#utility.yul\":1867:1957   */\n      swap2\n      swap1\n      pop\n      jump\t// out\n        /* \"#utility.yul\":1963:2072   */\n    tag_150:\n        /* \"#utility.yul\":2044:2065   */\n      tag_214\n        /* \"#utility.yul\":2059:2064   */\n      dup2\n        /* \"#utility.yul\":2044:2065   */\n      tag_149\n      jump\t// in\n    tag_214:\n        /* \"#utility.yul\":2039:2042   */\n      dup3\n        /* \"#utility.yul\":2032:2066   */\n      mstore\n        /* \"#utility.yul\":1963:2072   */\n      pop\n      pop\n      jump\t// out\n        /* \"#utility.yul\":2078:2288   */\n    tag_28:\n        /* \"#utility.yul\":2165:2169   */\n      0x00\n        /* \"#utility.yul\":2203:2205   */\n      0x20\n        /* \"#utility.yul\":2192:2201   */\n      dup3\n        /* \"#utility.yul\":2188:2206   */\n      add\n        /* \"#utility.yul\":2180:2206   */\n      swap1\n      pop\n        /* \"#utility.yul\":2216:2281   */\n      tag_216\n        /* \"#utility.yul\":2278:2279   */\n      0x00\n        /* \"#utility.yul\":2267:2276   */\n      dup4\n        /* \"#utility.yul\":2263:2280   */\n      add\n        /* \"#utility.yul\":2254:2260   */\n      dup5\n        /* \"#utility.yul\":2216:2281   */\n      tag_150\n      jump\t// in\n    tag_216:\n        /* \"#utility.yul\":2078:2288   */\n      swap3\n      swap2\n      pop\n      pop\n      jump\t// out\n        /* \"#utility.yul\":2294:2412   */\n    tag_151:\n        /* \"#utility.yul\":2381:2405   */\n      tag_218\n        /* \"#utility.yul\":2399:2404   */\n      dup2\n        /* \"#utility.yul\":2381:2405   */\n      tag_142\n      jump\t// in\n    tag_218:\n        /* \"#utility.yul\":2376:2379   */\n      dup3\n        /* \"#utility.yul\":2369:2406   */\n      mstore\n        /* \"#utility.yul\":2294:2412   */\n      pop\n      pop\n      jump\t// out\n        /* \"#utility.yul\":2418:2640   */\n    tag_33:\n        /* \"#utility.yul\":2511:2515   */\n      0x00\n        /* \"#utility.yul\":2549:2551   */\n      0x20\n        /* \"#utility.yul\":2538:2547   */\n      dup3\n        /* \"#utility.yul\":2534:2552   */\n      add\n        /* \"#utility.yul\":2526:2552   */\n      swap1\n      pop\n        /* \"#utility.yul\":2562:2633   */\n      tag_220\n        /* \"#utility.yul\":2630:2631   */\n      0x00\n        /* \"#utility.yul\":2619:2628   */\n      dup4\n        /* \"#utility.yul\":2615:2632   */\n      add\n        /* \"#utility.yul\":2606:2612   */\n      dup5\n        /* \"#utility.yul\":2562:2633   */\n      tag_151\n      jump\t// in\n    tag_220:\n        /* \"#utility.yul\":2418:2640   */\n      swap3\n      swap2\n      pop\n      pop\n      jump\t// out\n        /* \"#utility.yul\":2646:2764   */\n    tag_152:\n        /* \"#utility.yul\":2733:2757   */\n      tag_222\n        /* \"#utility.yul\":2751:2756   */\n      dup2\n        /* \"#utility.yul\":2733:2757   */\n      tag_146\n      jump\t// in\n    tag_222:\n        /* \"#utility.yul\":2728:2731   */\n      dup3\n        /* \"#utility.yul\":2721:2758   */\n      mstore\n        /* \"#utility.yul\":2646:2764   */\n      pop\n      pop\n      jump\t// out\n        /* \"#utility.yul\":2770:3434   */\n    tag_38:\n        /* \"#utility.yul\":2975:2979   */\n      0x00\n        /* \"#utility.yul\":3013:3016   */\n      0xa0\n        /* \"#utility.yul\":3002:3011   */\n      dup3\n        /* \"#utility.yul\":2998:3017   */\n      add\n        /* \"#utility.yul\":2990:3017   */\n      swap1\n      pop\n        /* \"#utility.yul\":3027:3098   */\n      tag_224\n        /* \"#utility.yul\":3095:3096   */\n      0x00\n        /* \"#utility.yul\":3084:3093   */\n      dup4\n        /* \"#utility.yul\":3080:3097   */\n      add\n        /* \"#utility.yul\":3071:3077   */\n      dup9\n        /* \"#utility.yul\":3027:3098   */\n      tag_151\n      jump\t// in\n    tag_224:\n        /* \"#utility.yul\":3108:3180   */\n      tag_225\n        /* \"#utility.yul\":3176:3178   */\n      0x20\n        /* \"#utility.yul\":3165:3174   */\n      dup4\n        /* \"#utility.yul\":3161:3179   */\n      add\n        /* \"#utility.yul\":3152:3158   */\n      dup8\n        /* \"#utility.yul\":3108:3180   */\n      tag_151\n      jump\t// in\n    tag_225:\n        /* \"#utility.yul\":3190:3262   */\n      tag_226\n        /* \"#utility.yul\":3258:3260   */\n      0x40\n        /* \"#utility.yul\":3247:3256   */\n      dup4\n        /* \"#utility.yul\":3243:3261   */\n      add\n        /* \"#utility.yul\":3234:3240   */\n      dup7\n        /* \"#utility.yul\":3190:3262   */\n      tag_151\n      jump\t// in\n    tag_226:\n        /* \"#utility.yul\":3272:3344   */\n      tag_227\n        /* \"#utility.yul\":3340:3342   */\n      0x60\n        /* \"#utility.yul\":3329:3338   */\n      dup4\n        /* \"#utility.yul\":3325:3343   */\n      add\n        /* \"#utility.yul\":3316:3322   */\n      dup6\n        /* \"#utility.yul\":3272:3344   */\n      tag_151\n      jump\t// in\n    tag_227:\n        /* \"#utility.yul\":3354:3427   */\n      tag_228\n        /* \"#utility.yul\":3422:3425   */\n      0x80\n        /* \"#utility.yul\":3411:3420   */\n      dup4\n        /* \"#utility.yul\":3407:3426   */\n      add\n        /* \"#utility.yul\":3398:3404   */\n      dup5\n        /* \"#utility.yul\":3354:3427   */\n      tag_152\n      jump\t// in\n    tag_228:\n        /* \"#utility.yul\":2770:3434   */\n      swap7\n      swap6\n      pop\n      pop\n      pop\n      pop\n      pop\n      pop\n      jump\t// out\n        /* \"#utility.yul\":3440:3662   */\n    tag_43:\n        /* \"#utility.yul\":3533:3537   */\n      0x00\n        /* \"#utility.yul\":3571:3573   */\n      0x20\n        /* \"#utility.yul\":3560:3569   */\n      dup3\n        /* \"#utility.yul\":3556:3574   */\n      add\n        /* \"#utility.yul\":3548:3574   */\n      swap1\n      pop\n        /* \"#utility.yul\":3584:3655   */\n      tag_230\n        /* \"#utility.yul\":3652:3653   */\n      0x00\n        /* \"#utility.yul\":3641:3650   */\n      dup4\n        /* \"#utility.yul\":3637:3654   */\n      add\n        /* \"#utility.yul\":3628:3634   */\n      dup5\n        /* \"#utility.yul\":3584:3655   */\n      tag_152\n      jump\t// in\n    tag_230:\n        /* \"#utility.yul\":3440:3662   */\n      swap3\n      swap2\n      pop\n      pop\n      jump\t// out\n        /* \"#utility.yul\":3668:3785   */\n    tag_153:\n        /* \"#utility.yul\":3777:3778   */\n      0x00\n        /* \"#utility.yul\":3774:3775   */\n      dup1\n        /* \"#utility.yul\":3767:3779   */\n      revert\n        /* \"#utility.yul\":3791:3908   */\n    tag_154:\n        /* \"#utility.yul\":3900:3901   */\n      0x00\n        /* \"#utility.yul\":3897:3898   */\n      dup1\n        /* \"#utility.yul\":3890:3902   */\n      revert\n        /* \"#utility.yul\":3914:4016   */\n    tag_155:\n        /* \"#utility.yul\":3955:3961   */\n      0x00\n        /* \"#utility.yul\":4006:4008   */\n      0x1f\n        /* \"#utility.yul\":4002:4009   */\n      not\n        /* \"#utility.yul\":3997:3999   */\n      0x1f\n        /* \"#utility.yul\":3990:3995   */\n      dup4\n        /* \"#utility.yul\":3986:4000   */\n      add\n        /* \"#utility.yul\":3982:4010   */\n      and\n        /* \"#utility.yul\":3972:4010   */\n      swap1\n      pop\n        /* \"#utility.yul\":3914:4016   */\n      swap2\n      swap1\n      pop\n      jump\t// out\n        /* \"#utility.yul\":4022:4202   */\n    tag_156:\n        /* \"#utility.yul\":4070:4147   */\n      0x4e487b7100000000000000000000000000000000000000000000000000000000\n        /* \"#utility.yul\":4067:4068   */\n      0x00\n        /* \"#utility.yul\":4060:4148   */\n      mstore\n        /* \"#utility.yul\":4167:4171   */\n      0x41\n        /* \"#utility.yul\":4164:4165   */\n      0x04\n        /* \"#utility.yul\":4157:4172   */\n      mstore\n        /* \"#utility.yul\":4191:4195   */\n      0x24\n        /* \"#utility.yul\":4188:4189   */\n      0x00\n        /* \"#utility.yul\":4181:4196   */\n      revert\n        /* \"#utility.yul\":4208:4489   */\n    tag_157:\n        /* \"#utility.yul\":4291:4318   */\n      tag_236\n        /* \"#utility.yul\":4313:4317   */\n      dup3\n        /* \"#utility.yul\":4291:4318   */\n      tag_155\n      jump\t// in\n    tag_236:\n        /* \"#utility.yul\":4283:4289   */\n      dup2\n        /* \"#utility.yul\":4279:4319   */\n      add\n        /* \"#utility.yul\":4421:4427   */\n      dup2\n        /* \"#utility.yul\":4409:4419   */\n      dup2\n        /* \"#utility.yul\":4406:4428   */\n      lt\n        /* \"#utility.yul\":4385:4403   */\n      0xffffffffffffffff\n        /* \"#utility.yul\":4373:4383   */\n      dup3\n        /* \"#utility.yul\":4370:4404   */\n      gt\n        /* \"#utility.yul\":4367:4429   */\n      or\n        /* \"#utility.yul\":4364:4452   */\n      iszero\n      tag_237\n      jumpi\n        /* \"#utility.yul\":4432:4450   */\n      tag_238\n      tag_156\n      jump\t// in\n    tag_238:\n        /* \"#utility.yul\":4364:4452   */\n    tag_237:\n        /* \"#utility.yul\":4472:4482   */\n      dup1\n        /* \"#utility.yul\":4468:4470   */\n      0x40\n        /* \"#utility.yul\":4461:4483   */\n      mstore\n        /* \"#utility.yul\":4251:4489   */\n      pop\n        /* \"#utility.yul\":4208:4489   */\n      pop\n      pop\n      jump\t// out\n        /* \"#utility.yul\":4495:4624   */\n    tag_158:\n        /* \"#utility.yul\":4529:4535   */\n      0x00\n        /* \"#utility.yul\":4556:4576   */\n      tag_240\n      tag_139\n      jump\t// in\n    tag_240:\n        /* \"#utility.yul\":4546:4576   */\n      swap1\n      pop\n        /* \"#utility.yul\":4585:4618   */\n      tag_241\n        /* \"#utility.yul\":4613:4617   */\n      dup3\n        /* \"#utility.yul\":4605:4611   */\n      dup3\n        /* \"#utility.yul\":4585:4618   */\n      tag_157\n      jump\t// in\n    tag_241:\n        /* \"#utility.yul\":4495:4624   */\n      swap2\n      swap1\n      pop\n      jump\t// out\n        /* \"#utility.yul\":4630:4938   */\n    tag_159:\n        /* \"#utility.yul\":4692:4696   */\n      0x00\n        /* \"#utility.yul\":4782:4800   */\n      0xffffffffffffffff\n        /* \"#utility.yul\":4774:4780   */\n      dup3\n        /* \"#utility.yul\":4771:4801   */\n      gt\n        /* \"#utility.yul\":4768:4824   */\n      iszero\n      tag_243\n      jumpi\n        /* \"#utility.yul\":4804:4822   */\n      tag_244\n      tag_156\n      jump\t// in\n    tag_244:\n        /* \"#utility.yul\":4768:4824   */\n    tag_243:\n        /* \"#utility.yul\":4842:4871   */\n      tag_245\n        /* \"#utility.yul\":4864:4870   */\n      dup3\n        /* \"#utility.yul\":4842:4871   */\n      tag_155\n      jump\t// in\n    tag_245:\n        /* \"#utility.yul\":4834:4871   */\n      swap1\n      pop\n        /* \"#utility.yul\":4926:4930   */\n      0x20\n        /* \"#utility.yul\":4920:4924   */\n      dup2\n        /* \"#utility.yul\":4916:4931   */\n      add\n        /* \"#utility.yul\":4908:4931   */\n      swap1\n      pop\n        /* \"#utility.yul\":4630:4938   */\n      swap2\n      swap1\n      pop\n      jump\t// out\n        /* \"#utility.yul\":4944:5098   */\n    tag_160:\n        /* \"#utility.yul\":5028:5034   */\n      dup3\n        /* \"#utility.yul\":5023:5026   */\n      dup2\n        /* \"#utility.yul\":5018:5021   */\n      dup4\n        /* \"#utility.yul\":5005:5035   */\n      calldatacopy\n        /* \"#utility.yul\":5090:5091   */\n      0x00\n        /* \"#utility.yul\":5081:5087   */\n      dup4\n        /* \"#utility.yul\":5076:5079   */\n      dup4\n        /* \"#utility.yul\":5072:5088   */\n      add\n        /* \"#utility.yul\":5065:5092   */\n      mstore\n        /* \"#utility.yul\":4944:5098   */\n      pop\n      pop\n      pop\n      jump\t// out\n        /* \"#utility.yul\":5104:5516   */\n    tag_161:\n        /* \"#utility.yul\":5182:5187   */\n      0x00\n        /* \"#utility.yul\":5207:5273   */\n      tag_248\n        /* \"#utility.yul\":5223:5272   */\n      tag_249\n        /* \"#utility.yul\":5265:5271   */\n      dup5\n        /* \"#utility.yul\":5223:5272   */\n      tag_159\n      jump\t// in\n    tag_249:\n        /* \"#utility.yul\":5207:5273   */\n      tag_158\n      jump\t// in\n    tag_248:\n        /* \"#utility.yul\":5198:5273   */\n      swap1\n      pop\n        /* \"#utility.yul\":5296:5302   */\n      dup3\n        /* \"#utility.yul\":5289:5294   */\n      dup2\n        /* \"#utility.yul\":5282:5303   */\n      mstore\n        /* \"#utility.yul\":5334:5338   */\n      0x20\n        /* \"#utility.yul\":5327:5332   */\n      dup2\n        /* \"#utility.yul\":5323:5339   */\n      add\n        /* \"#utility.yul\":5372:5375   */\n      dup5\n        /* \"#utility.yul\":5363:5369   */\n      dup5\n        /* \"#utility.yul\":5358:5361   */\n      dup5\n        /* \"#utility.yul\":5354:5370   */\n      add\n        /* \"#utility.yul\":5351:5376   */\n      gt\n        /* \"#utility.yul\":5348:5460   */\n      iszero\n      tag_250\n      jumpi\n        /* \"#utility.yul\":5379:5458   */\n      tag_251\n      tag_154\n      jump\t// in\n    tag_251:\n        /* \"#utility.yul\":5348:5460   */\n    tag_250:\n        /* \"#utility.yul\":5469:5510   */\n      tag_252\n        /* \"#utility.yul\":5503:5509   */\n      dup5\n        /* \"#utility.yul\":5498:5501   */\n      dup3\n        /* \"#utility.yul\":5493:5496   */\n      dup6\n        /* \"#utility.yul\":5469:5510   */\n      tag_160\n      jump\t// in\n    tag_252:\n        /* \"#utility.yul\":5188:5516   */\n      pop\n        /* \"#utility.yul\":5104:5516   */\n      swap4\n      swap3\n      pop\n      pop\n      pop\n      jump\t// out\n        /* \"#utility.yul\":5536:5876   */\n    tag_162:\n        /* \"#utility.yul\":5592:5597   */\n      0x00\n        /* \"#utility.yul\":5641:5644   */\n      dup3\n        /* \"#utility.yul\":5634:5638   */\n      0x1f\n        /* \"#utility.yul\":5626:5632   */\n      dup4\n        /* \"#utility.yul\":5622:5639   */\n      add\n        /* \"#utility.yul\":5618:5645   */\n      slt\n        /* \"#utility.yul\":5608:5730   */\n      tag_254\n      jumpi\n        /* \"#utility.yul\":5649:5728   */\n      tag_255\n      tag_153\n      jump\t// in\n    tag_255:\n        /* \"#utility.yul\":5608:5730   */\n    tag_254:\n        /* \"#utility.yul\":5766:5772   */\n      dup2\n        /* \"#utility.yul\":5753:5773   */\n      calldataload\n        /* \"#utility.yul\":5791:5870   */\n      tag_256\n        /* \"#utility.yul\":5866:5869   */\n      dup5\n        /* \"#utility.yul\":5858:5864   */\n      dup3\n        /* \"#utility.yul\":5851:5855   */\n      0x20\n        /* \"#utility.yul\":5843:5849   */\n      dup7\n        /* \"#utility.yul\":5839:5856   */\n      add\n        /* \"#utility.yul\":5791:5870   */\n      tag_161\n      jump\t// in\n    tag_256:\n        /* \"#utility.yul\":5782:5870   */\n      swap2\n      pop\n        /* \"#utility.yul\":5598:5876   */\n      pop\n        /* \"#utility.yul\":5536:5876   */\n      swap3\n      swap2\n      pop\n      pop\n      jump\t// out\n        /* \"#utility.yul\":5882:5986   */\n    tag_163:\n        /* \"#utility.yul\":5927:5934   */\n      0x00\n        /* \"#utility.yul\":5956:5980   */\n      tag_258\n        /* \"#utility.yul\":5974:5979   */\n      dup3\n        /* \"#utility.yul\":5956:5980   */\n      tag_145\n      jump\t// in\n    tag_258:\n        /* \"#utility.yul\":5945:5980   */\n      swap1\n      pop\n        /* \"#utility.yul\":5882:5986   */\n      swap2\n      swap1\n      pop\n      jump\t// out\n        /* \"#utility.yul\":5992:6130   */\n    tag_164:\n        /* \"#utility.yul\":6073:6105   */\n      tag_260\n        /* \"#utility.yul\":6099:6104   */\n      dup2\n        /* \"#utility.yul\":6073:6105   */\n      tag_163\n      jump\t// in\n    tag_260:\n        /* \"#utility.yul\":6066:6071   */\n      dup2\n        /* \"#utility.yul\":6063:6106   */\n      eq\n        /* \"#utility.yul\":6053:6124   */\n      tag_261\n      jumpi\n        /* \"#utility.yul\":6120:6121   */\n      0x00\n        /* \"#utility.yul\":6117:6118   */\n      dup1\n        /* \"#utility.yul\":6110:6122   */\n      revert\n        /* \"#utility.yul\":6053:6124   */\n    tag_261:\n        /* \"#utility.yul\":5992:6130   */\n      pop\n      jump\t// out\n        /* \"#utility.yul\":6136:6291   */\n    tag_165:\n        /* \"#utility.yul\":6190:6195   */\n      0x00\n        /* \"#utility.yul\":6228:6234   */\n      dup2\n        /* \"#utility.yul\":6215:6235   */\n      calldataload\n        /* \"#utility.yul\":6206:6235   */\n      swap1\n      pop\n        /* \"#utility.yul\":6244:6285   */\n      tag_263\n        /* \"#utility.yul\":6279:6284   */\n      dup2\n        /* \"#utility.yul\":6244:6285   */\n      tag_164\n      jump\t// in\n    tag_263:\n        /* \"#utility.yul\":6136:6291   */\n      swap3\n      swap2\n      pop\n      pop\n      jump\t// out\n        /* \"#utility.yul\":6297:7112   */\n    tag_55:\n        /* \"#utility.yul\":6392:6398   */\n      0x00\n        /* \"#utility.yul\":6400:6406   */\n      dup1\n        /* \"#utility.yul\":6408:6414   */\n      0x00\n        /* \"#utility.yul\":6457:6459   */\n      0x60\n        /* \"#utility.yul\":6445:6454   */\n      dup5\n        /* \"#utility.yul\":6436:6443   */\n      dup7\n        /* \"#utility.yul\":6432:6455   */\n      sub\n        /* \"#utility.yul\":6428:6460   */\n      slt\n        /* \"#utility.yul\":6425:6544   */\n      iszero\n      tag_265\n      jumpi\n        /* \"#utility.yul\":6463:6542   */\n      tag_266\n      tag_140\n      jump\t// in\n    tag_266:\n        /* \"#utility.yul\":6425:6544   */\n    tag_265:\n        /* \"#utility.yul\":6611:6612   */\n      0x00\n        /* \"#utility.yul\":6600:6609   */\n      dup5\n        /* \"#utility.yul\":6596:6613   */\n      add\n        /* \"#utility.yul\":6583:6614   */\n      calldataload\n        /* \"#utility.yul\":6641:6659   */\n      0xffffffffffffffff\n        /* \"#utility.yul\":6633:6639   */\n      dup2\n        /* \"#utility.yul\":6630:6660   */\n      gt\n        /* \"#utility.yul\":6627:6744   */\n      iszero\n      tag_267\n      jumpi\n        /* \"#utility.yul\":6663:6742   */\n      tag_268\n      tag_141\n      jump\t// in\n    tag_268:\n        /* \"#utility.yul\":6627:6744   */\n    tag_267:\n        /* \"#utility.yul\":6768:6831   */\n      tag_269\n        /* \"#utility.yul\":6823:6830   */\n      dup7\n        /* \"#utility.yul\":6814:6820   */\n      dup3\n        /* \"#utility.yul\":6803:6812   */\n      dup8\n        /* \"#utility.yul\":6799:6821   */\n      add\n        /* \"#utility.yul\":6768:6831   */\n      tag_162\n      jump\t// in\n    tag_269:\n        /* \"#utility.yul\":6758:6831   */\n      swap4\n      pop\n        /* \"#utility.yul\":6554:6841   */\n      pop\n        /* \"#utility.yul\":6880:6882   */\n      0x20\n        /* \"#utility.yul\":6906:6959   */\n      tag_270\n        /* \"#utility.yul\":6951:6958   */\n      dup7\n        /* \"#utility.yul\":6942:6948   */\n      dup3\n        /* \"#utility.yul\":6931:6940   */\n      dup8\n        /* \"#utility.yul\":6927:6949   */\n      add\n        /* \"#utility.yul\":6906:6959   */\n      tag_144\n      jump\t// in\n    tag_270:\n        /* \"#utility.yul\":6896:6959   */\n      swap3\n      pop\n        /* \"#utility.yul\":6851:6969   */\n      pop\n        /* \"#utility.yul\":7008:7010   */\n      0x40\n        /* \"#utility.yul\":7034:7095   */\n      tag_271\n        /* \"#utility.yul\":7087:7094   */\n      dup7\n        /* \"#utility.yul\":7078:7084   */\n      dup3\n        /* \"#utility.yul\":7067:7076   */\n      dup8\n        /* \"#utility.yul\":7063:7085   */\n      add\n        /* \"#utility.yul\":7034:7095   */\n      tag_165\n      jump\t// in\n    tag_271:\n        /* \"#utility.yul\":7024:7095   */\n      swap2\n      pop\n        /* \"#utility.yul\":6979:7105   */\n      pop\n        /* \"#utility.yul\":6297:7112   */\n      swap3\n      pop\n      swap3\n      pop\n      swap3\n      jump\t// out\n        /* \"#utility.yul\":7118:7217   */\n    tag_166:\n        /* \"#utility.yul\":7170:7176   */\n      0x00\n        /* \"#utility.yul\":7204:7209   */\n      dup2\n        /* \"#utility.yul\":7198:7210   */\n      mload\n        /* \"#utility.yul\":7188:7210   */\n      swap1\n      pop\n        /* \"#utility.yul\":7118:7217   */\n      swap2\n      swap1\n      pop\n      jump\t// out\n        /* \"#utility.yul\":7223:7392   */\n    tag_167:\n        /* \"#utility.yul\":7307:7318   */\n      0x00\n        /* \"#utility.yul\":7341:7347   */\n      dup3\n        /* \"#utility.yul\":7336:7339   */\n      dup3\n        /* \"#utility.yul\":7329:7348   */\n      mstore\n        /* \"#utility.yul\":7381:7385   */\n      0x20\n        /* \"#utility.yul\":7376:7379   */\n      dup3\n        /* \"#utility.yul\":7372:7386   */\n      add\n        /* \"#utility.yul\":7357:7386   */\n      swap1\n      pop\n        /* \"#utility.yul\":7223:7392   */\n      swap3\n      swap2\n      pop\n      pop\n      jump\t// out\n        /* \"#utility.yul\":7398:7705   */\n    tag_168:\n        /* \"#utility.yul\":7466:7467   */\n      0x00\n        /* \"#utility.yul\":7476:7589   */\n    tag_275:\n        /* \"#utility.yul\":7490:7496   */\n      dup4\n        /* \"#utility.yul\":7487:7488   */\n      dup2\n        /* \"#utility.yul\":7484:7497   */\n      lt\n        /* \"#utility.yul\":7476:7589   */\n      iszero\n      tag_277\n      jumpi\n        /* \"#utility.yul\":7575:7576   */\n      dup1\n        /* \"#utility.yul\":7570:7573   */\n      dup3\n        /* \"#utility.yul\":7566:7577   */\n      add\n        /* \"#utility.yul\":7560:7578   */\n      mload\n        /* \"#utility.yul\":7556:7557   */\n      dup2\n        /* \"#utility.yul\":7551:7554   */\n      dup5\n        /* \"#utility.yul\":7547:7558   */\n      add\n        /* \"#utility.yul\":7540:7579   */\n      mstore\n        /* \"#utility.yul\":7512:7514   */\n      0x20\n        /* \"#utility.yul\":7509:7510   */\n      dup2\n        /* \"#utility.yul\":7505:7515   */\n      add\n        /* \"#utility.yul\":7500:7515   */\n      swap1\n      pop\n        /* \"#utility.yul\":7476:7589   */\n      jump(tag_275)\n    tag_277:\n        /* \"#utility.yul\":7607:7613   */\n      dup4\n        /* \"#utility.yul\":7604:7605   */\n      dup2\n        /* \"#utility.yul\":7601:7614   */\n      gt\n        /* \"#utility.yul\":7598:7699   */\n      iszero\n      tag_278\n      jumpi\n        /* \"#utility.yul\":7687:7688   */\n      0x00\n        /* \"#utility.yul\":7678:7684   */\n      dup5\n        /* \"#utility.yul\":7673:7676   */\n      dup5\n        /* \"#utility.yul\":7669:7685   */\n      add\n        /* \"#utility.yul\":7662:7689   */\n      mstore\n        /* \"#utility.yul\":7598:7699   */\n    tag_278:\n        /* \"#utility.yul\":7447:7705   */\n      pop\n        /* \"#utility.yul\":7398:7705   */\n      pop\n      pop\n      pop\n      jump\t// out\n        /* \"#utility.yul\":7711:8075   */\n    tag_169:\n        /* \"#utility.yul\":7799:7802   */\n      0x00\n        /* \"#utility.yul\":7827:7866   */\n      tag_280\n        /* \"#utility.yul\":7860:7865   */\n      dup3\n        /* \"#utility.yul\":7827:7866   */\n      tag_166\n      jump\t// in\n    tag_280:\n        /* \"#utility.yul\":7882:7953   */\n      tag_281\n        /* \"#utility.yul\":7946:7952   */\n      dup2\n        /* \"#utility.yul\":7941:7944   */\n      dup6\n        /* \"#utility.yul\":7882:7953   */\n      tag_167\n      jump\t// in\n    tag_281:\n        /* \"#utility.yul\":7875:7953   */\n      swap4\n      pop\n        /* \"#utility.yul\":7962:8014   */\n      tag_282\n        /* \"#utility.yul\":8007:8013   */\n      dup2\n        /* \"#utility.yul\":8002:8005   */\n      dup6\n        /* \"#utility.yul\":7995:7999   */\n      0x20\n        /* \"#utility.yul\":7988:7993   */\n      dup7\n        /* \"#utility.yul\":7984:8000   */\n      add\n        /* \"#utility.yul\":7962:8014   */\n      tag_168\n      jump\t// in\n    tag_282:\n        /* \"#utility.yul\":8039:8068   */\n      tag_283\n        /* \"#utility.yul\":8061:8067   */\n      dup2\n        /* \"#utility.yul\":8039:8068   */\n      tag_155\n      jump\t// in\n    tag_283:\n        /* \"#utility.yul\":8034:8037   */\n      dup5\n        /* \"#utility.yul\":8030:8069   */\n      add\n        /* \"#utility.yul\":8023:8069   */\n      swap2\n      pop\n        /* \"#utility.yul\":7803:8075   */\n      pop\n        /* \"#utility.yul\":7711:8075   */\n      swap3\n      swap2\n      pop\n      pop\n      jump\t// out\n        /* \"#utility.yul\":8081:8223   */\n    tag_170:\n        /* \"#utility.yul\":8184:8216   */\n      tag_285\n        /* \"#utility.yul\":8210:8215   */\n      dup2\n        /* \"#utility.yul\":8184:8216   */\n      tag_163\n      jump\t// in\n    tag_285:\n        /* \"#utility.yul\":8179:8182   */\n      dup3\n        /* \"#utility.yul\":8172:8217   */\n      mstore\n        /* \"#utility.yul\":8081:8223   */\n      pop\n      pop\n      jump\t// out\n        /* \"#utility.yul\":8229:9004   */\n    tag_62:\n        /* \"#utility.yul\":8464:8468   */\n      0x00\n        /* \"#utility.yul\":8502:8505   */\n      0xa0\n        /* \"#utility.yul\":8491:8500   */\n      dup3\n        /* \"#utility.yul\":8487:8506   */\n      add\n        /* \"#utility.yul\":8479:8506   */\n      swap1\n      pop\n        /* \"#utility.yul\":8552:8561   */\n      dup2\n        /* \"#utility.yul\":8546:8550   */\n      dup2\n        /* \"#utility.yul\":8542:8562   */\n      sub\n        /* \"#utility.yul\":8538:8539   */\n      0x00\n        /* \"#utility.yul\":8527:8536   */\n      dup4\n        /* \"#utility.yul\":8523:8540   */\n      add\n        /* \"#utility.yul\":8516:8563   */\n      mstore\n        /* \"#utility.yul\":8580:8658   */\n      tag_287\n        /* \"#utility.yul\":8653:8657   */\n      dup2\n        /* \"#utility.yul\":8644:8650   */\n      dup9\n        /* \"#utility.yul\":8580:8658   */\n      tag_169\n      jump\t// in\n    tag_287:\n        /* \"#utility.yul\":8572:8658   */\n      swap1\n      pop\n        /* \"#utility.yul\":8668:8740   */\n      tag_288\n        /* \"#utility.yul\":8736:8738   */\n      0x20\n        /* \"#utility.yul\":8725:8734   */\n      dup4\n        /* \"#utility.yul\":8721:8739   */\n      add\n        /* \"#utility.yul\":8712:8718   */\n      dup8\n        /* \"#utility.yul\":8668:8740   */\n      tag_151\n      jump\t// in\n    tag_288:\n        /* \"#utility.yul\":8750:8838   */\n      tag_289\n        /* \"#utility.yul\":8834:8836   */\n      0x40\n        /* \"#utility.yul\":8823:8832   */\n      dup4\n        /* \"#utility.yul\":8819:8837   */\n      add\n        /* \"#utility.yul\":8810:8816   */\n      dup7\n        /* \"#utility.yul\":8750:8838   */\n      tag_170\n      jump\t// in\n    tag_289:\n        /* \"#utility.yul\":8848:8914   */\n      tag_290\n        /* \"#utility.yul\":8910:8912   */\n      0x60\n        /* \"#utility.yul\":8899:8908   */\n      dup4\n        /* \"#utility.yul\":8895:8913   */\n      add\n        /* \"#utility.yul\":8886:8892   */\n      dup6\n        /* \"#utility.yul\":8848:8914   */\n      tag_150\n      jump\t// in\n    tag_290:\n        /* \"#utility.yul\":8924:8997   */\n      tag_291\n        /* \"#utility.yul\":8992:8995   */\n      0x80\n        /* \"#utility.yul\":8981:8990   */\n      dup4\n        /* \"#utility.yul\":8977:8996   */\n      add\n        /* \"#utility.yul\":8968:8974   */\n      dup5\n        /* \"#utility.yul\":8924:8997   */\n      tag_151\n      jump\t// in\n    tag_291:\n        /* \"#utility.yul\":8229:9004   */\n      swap7\n      swap6\n      pop\n      pop\n      pop\n      pop\n      pop\n      pop\n      jump\t// out\n        /* \"#utility.yul\":9010:9154   */\n    tag_171:\n        /* \"#utility.yul\":9107:9113   */\n      0x00\n        /* \"#utility.yul\":9141:9146   */\n      dup2\n        /* \"#utility.yul\":9135:9147   */\n      mload\n        /* \"#utility.yul\":9125:9147   */\n      swap1\n      pop\n        /* \"#utility.yul\":9010:9154   */\n      swap2\n      swap1\n      pop\n      jump\t// out\n        /* \"#utility.yul\":9160:9374   */\n    tag_172:\n        /* \"#utility.yul\":9289:9300   */\n      0x00\n        /* \"#utility.yul\":9323:9329   */\n      dup3\n        /* \"#utility.yul\":9318:9321   */\n      dup3\n        /* \"#utility.yul\":9311:9330   */\n      mstore\n        /* \"#utility.yul\":9363:9367   */\n      0x20\n        /* \"#utility.yul\":9358:9361   */\n      dup3\n        /* \"#utility.yul\":9354:9368   */\n      add\n        /* \"#utility.yul\":9339:9368   */\n      swap1\n      pop\n        /* \"#utility.yul\":9160:9374   */\n      swap3\n      swap2\n      pop\n      pop\n      jump\t// out\n        /* \"#utility.yul\":9380:9542   */\n    tag_173:\n        /* \"#utility.yul\":9477:9481   */\n      0x00\n        /* \"#utility.yul\":9500:9503   */\n      dup2\n        /* \"#utility.yul\":9492:9503   */\n      swap1\n      pop\n        /* \"#utility.yul\":9530:9534   */\n      0x20\n        /* \"#utility.yul\":9525:9528   */\n      dup3\n        /* \"#utility.yul\":9521:9535   */\n      add\n        /* \"#utility.yul\":9513:9535   */\n      swap1\n      pop\n        /* \"#utility.yul\":9380:9542   */\n      swap2\n      swap1\n      pop\n      jump\t// out\n        /* \"#utility.yul\":9548:9707   */\n    tag_174:\n        /* \"#utility.yul\":9622:9633   */\n      0x00\n        /* \"#utility.yul\":9656:9662   */\n      dup3\n        /* \"#utility.yul\":9651:9654   */\n      dup3\n        /* \"#utility.yul\":9644:9663   */\n      mstore\n        /* \"#utility.yul\":9696:9700   */\n      0x20\n        /* \"#utility.yul\":9691:9694   */\n      dup3\n        /* \"#utility.yul\":9687:9701   */\n      add\n        /* \"#utility.yul\":9672:9701   */\n      swap1\n      pop\n        /* \"#utility.yul\":9548:9707   */\n      swap3\n      swap2\n      pop\n      pop\n      jump\t// out\n        /* \"#utility.yul\":9713:10057   */\n    tag_175:\n        /* \"#utility.yul\":9791:9794   */\n      0x00\n        /* \"#utility.yul\":9819:9858   */\n      tag_297\n        /* \"#utility.yul\":9852:9857   */\n      dup3\n        /* \"#utility.yul\":9819:9858   */\n      tag_166\n      jump\t// in\n    tag_297:\n        /* \"#utility.yul\":9874:9935   */\n      tag_298\n        /* \"#utility.yul\":9928:9934   */\n      dup2\n        /* \"#utility.yul\":9923:9926   */\n      dup6\n        /* \"#utility.yul\":9874:9935   */\n      tag_174\n      jump\t// in\n    tag_298:\n        /* \"#utility.yul\":9867:9935   */\n      swap4\n      pop\n        /* \"#utility.yul\":9944:9996   */\n      tag_299\n        /* \"#utility.yul\":9989:9995   */\n      dup2\n        /* \"#utility.yul\":9984:9987   */\n      dup6\n        /* \"#utility.yul\":9977:9981   */\n      0x20\n        /* \"#utility.yul\":9970:9975   */\n      dup7\n        /* \"#utility.yul\":9966:9982   */\n      add\n        /* \"#utility.yul\":9944:9996   */\n      tag_168\n      jump\t// in\n    tag_299:\n        /* \"#utility.yul\":10021:10050   */\n      tag_300\n        /* \"#utility.yul\":10043:10049   */\n      dup2\n        /* \"#utility.yul\":10021:10050   */\n      tag_155\n      jump\t// in\n    tag_300:\n        /* \"#utility.yul\":10016:10019   */\n      dup5\n        /* \"#utility.yul\":10012:10051   */\n      add\n        /* \"#utility.yul\":10005:10051   */\n      swap2\n      pop\n        /* \"#utility.yul\":9795:10057   */\n      pop\n        /* \"#utility.yul\":9713:10057   */\n      swap3\n      swap2\n      pop\n      pop\n      jump\t// out\n        /* \"#utility.yul\":10063:10171   */\n    tag_176:\n        /* \"#utility.yul\":10140:10164   */\n      tag_302\n        /* \"#utility.yul\":10158:10163   */\n      dup2\n        /* \"#utility.yul\":10140:10164   */\n      tag_142\n      jump\t// in\n    tag_302:\n        /* \"#utility.yul\":10135:10138   */\n      dup3\n        /* \"#utility.yul\":10128:10165   */\n      mstore\n        /* \"#utility.yul\":10063:10171   */\n      pop\n      pop\n      jump\t// out\n        /* \"#utility.yul\":10177:10309   */\n    tag_177:\n        /* \"#utility.yul\":10270:10302   */\n      tag_304\n        /* \"#utility.yul\":10296:10301   */\n      dup2\n        /* \"#utility.yul\":10270:10302   */\n      tag_163\n      jump\t// in\n    tag_304:\n        /* \"#utility.yul\":10265:10268   */\n      dup3\n        /* \"#utility.yul\":10258:10303   */\n      mstore\n        /* \"#utility.yul\":10177:10309   */\n      pop\n      pop\n      jump\t// out\n        /* \"#utility.yul\":10315:10414   */\n    tag_178:\n        /* \"#utility.yul\":10386:10407   */\n      tag_306\n        /* \"#utility.yul\":10401:10406   */\n      dup2\n        /* \"#utility.yul\":10386:10407   */\n      tag_149\n      jump\t// in\n    tag_306:\n        /* \"#utility.yul\":10381:10384   */\n      dup3\n        /* \"#utility.yul\":10374:10408   */\n      mstore\n        /* \"#utility.yul\":10315:10414   */\n      pop\n      pop\n      jump\t// out\n        /* \"#utility.yul\":10492:11656   */\n    tag_179:\n        /* \"#utility.yul\":10611:10614   */\n      0x00\n        /* \"#utility.yul\":10647:10651   */\n      0xa0\n        /* \"#utility.yul\":10642:10645   */\n      dup4\n        /* \"#utility.yul\":10638:10652   */\n      add\n        /* \"#utility.yul\":10741:10745   */\n      0x00\n        /* \"#utility.yul\":10734:10739   */\n      dup4\n        /* \"#utility.yul\":10730:10746   */\n      add\n        /* \"#utility.yul\":10724:10747   */\n      mload\n        /* \"#utility.yul\":10794:10797   */\n      dup5\n        /* \"#utility.yul\":10788:10792   */\n      dup3\n        /* \"#utility.yul\":10784:10798   */\n      sub\n        /* \"#utility.yul\":10777:10781   */\n      0x00\n        /* \"#utility.yul\":10772:10775   */\n      dup7\n        /* \"#utility.yul\":10768:10782   */\n      add\n        /* \"#utility.yul\":10761:10799   */\n      mstore\n        /* \"#utility.yul\":10820:10893   */\n      tag_308\n        /* \"#utility.yul\":10888:10892   */\n      dup3\n        /* \"#utility.yul\":10874:10886   */\n      dup3\n        /* \"#utility.yul\":10820:10893   */\n      tag_175\n      jump\t// in\n    tag_308:\n        /* \"#utility.yul\":10812:10893   */\n      swap2\n      pop\n        /* \"#utility.yul\":10662:10904   */\n      pop\n        /* \"#utility.yul\":10987:10991   */\n      0x20\n        /* \"#utility.yul\":10980:10985   */\n      dup4\n        /* \"#utility.yul\":10976:10992   */\n      add\n        /* \"#utility.yul\":10970:10993   */\n      mload\n        /* \"#utility.yul\":11006:11069   */\n      tag_309\n        /* \"#utility.yul\":11063:11067   */\n      0x20\n        /* \"#utility.yul\":11058:11061   */\n      dup7\n        /* \"#utility.yul\":11054:11068   */\n      add\n        /* \"#utility.yul\":11040:11052   */\n      dup3\n        /* \"#utility.yul\":11006:11069   */\n      tag_176\n      jump\t// in\n    tag_309:\n        /* \"#utility.yul\":10914:11079   */\n      pop\n        /* \"#utility.yul\":11166:11170   */\n      0x40\n        /* \"#utility.yul\":11159:11164   */\n      dup4\n        /* \"#utility.yul\":11155:11171   */\n      add\n        /* \"#utility.yul\":11149:11172   */\n      mload\n        /* \"#utility.yul\":11185:11264   */\n      tag_310\n        /* \"#utility.yul\":11258:11262   */\n      0x40\n        /* \"#utility.yul\":11253:11256   */\n      dup7\n        /* \"#utility.yul\":11249:11263   */\n      add\n        /* \"#utility.yul\":11235:11247   */\n      dup3\n        /* \"#utility.yul\":11185:11264   */\n      tag_177\n      jump\t// in\n    tag_310:\n        /* \"#utility.yul\":11089:11274   */\n      pop\n        /* \"#utility.yul\":11360:11364   */\n      0x60\n        /* \"#utility.yul\":11353:11358   */\n      dup4\n        /* \"#utility.yul\":11349:11365   */\n      add\n        /* \"#utility.yul\":11343:11366   */\n      mload\n        /* \"#utility.yul\":11379:11436   */\n      tag_311\n        /* \"#utility.yul\":11430:11434   */\n      0x60\n        /* \"#utility.yul\":11425:11428   */\n      dup7\n        /* \"#utility.yul\":11421:11435   */\n      add\n        /* \"#utility.yul\":11407:11419   */\n      dup3\n        /* \"#utility.yul\":11379:11436   */\n      tag_178\n      jump\t// in\n    tag_311:\n        /* \"#utility.yul\":11284:11446   */\n      pop\n        /* \"#utility.yul\":11537:11541   */\n      0x80\n        /* \"#utility.yul\":11530:11535   */\n      dup4\n        /* \"#utility.yul\":11526:11542   */\n      add\n        /* \"#utility.yul\":11520:11543   */\n      mload\n        /* \"#utility.yul\":11556:11619   */\n      tag_312\n        /* \"#utility.yul\":11613:11617   */\n      0x80\n        /* \"#utility.yul\":11608:11611   */\n      dup7\n        /* \"#utility.yul\":11604:11618   */\n      add\n        /* \"#utility.yul\":11590:11602   */\n      dup3\n        /* \"#utility.yul\":11556:11619   */\n      tag_176\n      jump\t// in\n    tag_312:\n        /* \"#utility.yul\":11456:11629   */\n      pop\n        /* \"#utility.yul\":11646:11650   */\n      dup1\n        /* \"#utility.yul\":11639:11650   */\n      swap2\n      pop\n        /* \"#utility.yul\":10616:11656   */\n      pop\n        /* \"#utility.yul\":10492:11656   */\n      swap3\n      swap2\n      pop\n      pop\n      jump\t// out\n        /* \"#utility.yul\":11662:11938   */\n    tag_180:\n        /* \"#utility.yul\":11791:11801   */\n      0x00\n        /* \"#utility.yul\":11826:11932   */\n      tag_314\n        /* \"#utility.yul\":11928:11931   */\n      dup4\n        /* \"#utility.yul\":11920:11926   */\n      dup4\n        /* \"#utility.yul\":11826:11932   */\n      tag_179\n      jump\t// in\n    tag_314:\n        /* \"#utility.yul\":11812:11932   */\n      swap1\n      pop\n        /* \"#utility.yul\":11662:11938   */\n      swap3\n      swap2\n      pop\n      pop\n      jump\t// out\n        /* \"#utility.yul\":11944:12087   */\n    tag_181:\n        /* \"#utility.yul\":12044:12048   */\n      0x00\n        /* \"#utility.yul\":12076:12080   */\n      0x20\n        /* \"#utility.yul\":12071:12074   */\n      dup3\n        /* \"#utility.yul\":12067:12081   */\n      add\n        /* \"#utility.yul\":12059:12081   */\n      swap1\n      pop\n        /* \"#utility.yul\":11944:12087   */\n      swap2\n      swap1\n      pop\n      jump\t// out\n        /* \"#utility.yul\":12169:13320   */\n    tag_182:\n        /* \"#utility.yul\":12348:12351   */\n      0x00\n        /* \"#utility.yul\":12377:12461   */\n      tag_317\n        /* \"#utility.yul\":12455:12460   */\n      dup3\n        /* \"#utility.yul\":12377:12461   */\n      tag_171\n      jump\t// in\n    tag_317:\n        /* \"#utility.yul\":12477:12593   */\n      tag_318\n        /* \"#utility.yul\":12586:12592   */\n      dup2\n        /* \"#utility.yul\":12581:12584   */\n      dup6\n        /* \"#utility.yul\":12477:12593   */\n      tag_172\n      jump\t// in\n    tag_318:\n        /* \"#utility.yul\":12470:12593   */\n      swap4\n      pop\n        /* \"#utility.yul\":12619:12622   */\n      dup4\n        /* \"#utility.yul\":12664:12668   */\n      0x20\n        /* \"#utility.yul\":12656:12662   */\n      dup3\n        /* \"#utility.yul\":12652:12669   */\n      mul\n        /* \"#utility.yul\":12647:12650   */\n      dup6\n        /* \"#utility.yul\":12643:12670   */\n      add\n        /* \"#utility.yul\":12694:12780   */\n      tag_319\n        /* \"#utility.yul\":12774:12779   */\n      dup6\n        /* \"#utility.yul\":12694:12780   */\n      tag_173\n      jump\t// in\n    tag_319:\n        /* \"#utility.yul\":12803:12810   */\n      dup1\n        /* \"#utility.yul\":12834:12835   */\n      0x00\n        /* \"#utility.yul\":12819:13275   */\n    tag_320:\n        /* \"#utility.yul\":12844:12850   */\n      dup6\n        /* \"#utility.yul\":12841:12842   */\n      dup2\n        /* \"#utility.yul\":12838:12851   */\n      lt\n        /* \"#utility.yul\":12819:13275   */\n      iszero\n      tag_322\n      jumpi\n        /* \"#utility.yul\":12915:12924   */\n      dup5\n        /* \"#utility.yul\":12909:12913   */\n      dup5\n        /* \"#utility.yul\":12905:12925   */\n      sub\n        /* \"#utility.yul\":12900:12903   */\n      dup10\n        /* \"#utility.yul\":12893:12926   */\n      mstore\n        /* \"#utility.yul\":12966:12972   */\n      dup2\n        /* \"#utility.yul\":12960:12973   */\n      mload\n        /* \"#utility.yul\":12994:13118   */\n      tag_323\n        /* \"#utility.yul\":13113:13117   */\n      dup6\n        /* \"#utility.yul\":13098:13111   */\n      dup3\n        /* \"#utility.yul\":12994:13118   */\n      tag_180\n      jump\t// in\n    tag_323:\n        /* \"#utility.yul\":12986:13118   */\n      swap5\n      pop\n        /* \"#utility.yul\":13141:13231   */\n      tag_324\n        /* \"#utility.yul\":13224:13230   */\n      dup4\n        /* \"#utility.yul\":13141:13231   */\n      tag_181\n      jump\t// in\n    tag_324:\n        /* \"#utility.yul\":13131:13231   */\n      swap3\n      pop\n        /* \"#utility.yul\":13260:13264   */\n      0x20\n        /* \"#utility.yul\":13255:13258   */\n      dup11\n        /* \"#utility.yul\":13251:13265   */\n      add\n        /* \"#utility.yul\":13244:13265   */\n      swap10\n      pop\n        /* \"#utility.yul\":12879:13275   */\n      pop\n        /* \"#utility.yul\":12866:12867   */\n      0x01\n        /* \"#utility.yul\":12863:12864   */\n      dup2\n        /* \"#utility.yul\":12859:12868   */\n      add\n        /* \"#utility.yul\":12854:12868   */\n      swap1\n      pop\n        /* \"#utility.yul\":12819:13275   */\n      jump(tag_320)\n    tag_322:\n        /* \"#utility.yul\":12823:12837   */\n      pop\n        /* \"#utility.yul\":13291:13295   */\n      dup3\n        /* \"#utility.yul\":13284:13295   */\n      swap8\n      pop\n        /* \"#utility.yul\":13311:13314   */\n      dup8\n        /* \"#utility.yul\":13304:13314   */\n      swap6\n      pop\n        /* \"#utility.yul\":12353:13320   */\n      pop\n      pop\n      pop\n      pop\n      pop\n        /* \"#utility.yul\":12169:13320   */\n      swap3\n      swap2\n      pop\n      pop\n      jump\t// out\n        /* \"#utility.yul\":13326:13819   */\n    tag_73:\n        /* \"#utility.yul\":13529:13533   */\n      0x00\n        /* \"#utility.yul\":13567:13569   */\n      0x20\n        /* \"#utility.yul\":13556:13565   */\n      dup3\n        /* \"#utility.yul\":13552:13570   */\n      add\n        /* \"#utility.yul\":13544:13570   */\n      swap1\n      pop\n        /* \"#utility.yul\":13616:13625   */\n      dup2\n        /* \"#utility.yul\":13610:13614   */\n      dup2\n        /* \"#utility.yul\":13606:13626   */\n      sub\n        /* \"#utility.yul\":13602:13603   */\n      0x00\n        /* \"#utility.yul\":13591:13600   */\n      dup4\n        /* \"#utility.yul\":13587:13604   */\n      add\n        /* \"#utility.yul\":13580:13627   */\n      mstore\n        /* \"#utility.yul\":13644:13812   */\n      tag_326\n        /* \"#utility.yul\":13807:13811   */\n      dup2\n        /* \"#utility.yul\":13798:13804   */\n      dup5\n        /* \"#utility.yul\":13644:13812   */\n      tag_182\n      jump\t// in\n    tag_326:\n        /* \"#utility.yul\":13636:13812   */\n      swap1\n      pop\n        /* \"#utility.yul\":13326:13819   */\n      swap3\n      swap2\n      pop\n      pop\n      jump\t// out\n        /* \"#utility.yul\":13825:14299   */\n    tag_77:\n        /* \"#utility.yul\":13893:13899   */\n      0x00\n        /* \"#utility.yul\":13901:13907   */\n      dup1\n        /* \"#utility.yul\":13950:13952   */\n      0x40\n        /* \"#utility.yul\":13938:13947   */\n      dup4\n        /* \"#utility.yul\":13929:13936   */\n      dup6\n        /* \"#utility.yul\":13925:13948   */\n      sub\n        /* \"#utility.yul\":13921:13953   */\n      slt\n        /* \"#utility.yul\":13918:14037   */\n      iszero\n      tag_328\n      jumpi\n        /* \"#utility.yul\":13956:14035   */\n      tag_329\n      tag_140\n      jump\t// in\n    tag_329:\n        /* \"#utility.yul\":13918:14037   */\n    tag_328:\n        /* \"#utility.yul\":14076:14077   */\n      0x00\n        /* \"#utility.yul\":14101:14154   */\n      tag_330\n        /* \"#utility.yul\":14146:14153   */\n      dup6\n        /* \"#utility.yul\":14137:14143   */\n      dup3\n        /* \"#utility.yul\":14126:14135   */\n      dup7\n        /* \"#utility.yul\":14122:14144   */\n      add\n        /* \"#utility.yul\":14101:14154   */\n      tag_148\n      jump\t// in\n    tag_330:\n        /* \"#utility.yul\":14091:14154   */\n      swap3\n      pop\n        /* \"#utility.yul\":14047:14164   */\n      pop\n        /* \"#utility.yul\":14203:14205   */\n      0x20\n        /* \"#utility.yul\":14229:14282   */\n      tag_331\n        /* \"#utility.yul\":14274:14281   */\n      dup6\n        /* \"#utility.yul\":14265:14271   */\n      dup3\n        /* \"#utility.yul\":14254:14263   */\n      dup7\n        /* \"#utility.yul\":14250:14272   */\n      add\n        /* \"#utility.yul\":14229:14282   */\n      tag_144\n      jump\t// in\n    tag_331:\n        /* \"#utility.yul\":14219:14282   */\n      swap2\n      pop\n        /* \"#utility.yul\":14174:14292   */\n      pop\n        /* \"#utility.yul\":13825:14299   */\n      swap3\n      pop\n      swap3\n      swap1\n      pop\n      jump\t// out\n        /* \"#utility.yul\":14305:14485   */\n    tag_85:\n        /* \"#utility.yul\":14353:14430   */\n      0x4e487b7100000000000000000000000000000000000000000000000000000000\n        /* \"#utility.yul\":14350:14351   */\n      0x00\n        /* \"#utility.yul\":14343:14431   */\n      mstore\n        /* \"#utility.yul\":14450:14454   */\n      0x32\n        /* \"#utility.yul\":14447:14448   */\n      0x04\n        /* \"#utility.yul\":14440:14455   */\n      mstore\n        /* \"#utility.yul\":14474:14478   */\n      0x24\n        /* \"#utility.yul\":14471:14472   */\n      0x00\n        /* \"#utility.yul\":14464:14479   */\n      revert\n        /* \"#utility.yul\":14491:14671   */\n    tag_183:\n        /* \"#utility.yul\":14539:14616   */\n      0x4e487b7100000000000000000000000000000000000000000000000000000000\n        /* \"#utility.yul\":14536:14537   */\n      0x00\n        /* \"#utility.yul\":14529:14617   */\n      mstore\n        /* \"#utility.yul\":14636:14640   */\n      0x12\n        /* \"#utility.yul\":14633:14634   */\n      0x04\n        /* \"#utility.yul\":14626:14641   */\n      mstore\n        /* \"#utility.yul\":14660:14664   */\n      0x24\n        /* \"#utility.yul\":14657:14658   */\n      0x00\n        /* \"#utility.yul\":14650:14665   */\n      revert\n        /* \"#utility.yul\":14677:14857   */\n    tag_184:\n        /* \"#utility.yul\":14725:14802   */\n      0x4e487b7100000000000000000000000000000000000000000000000000000000\n        /* \"#utility.yul\":14722:14723   */\n      0x00\n        /* \"#utility.yul\":14715:14803   */\n      mstore\n        /* \"#utility.yul\":14822:14826   */\n      0x11\n        /* \"#utility.yul\":14819:14820   */\n      0x04\n        /* \"#utility.yul\":14812:14827   */\n      mstore\n        /* \"#utility.yul\":14846:14850   */\n      0x24\n        /* \"#utility.yul\":14843:14844   */\n      0x00\n        /* \"#utility.yul\":14836:14851   */\n      revert\n        /* \"#utility.yul\":14863:15048   */\n    tag_88:\n        /* \"#utility.yul\":14903:14904   */\n      0x00\n        /* \"#utility.yul\":14920:14940   */\n      tag_336\n        /* \"#utility.yul\":14938:14939   */\n      dup3\n        /* \"#utility.yul\":14920:14940   */\n      tag_142\n      jump\t// in\n    tag_336:\n        /* \"#utility.yul\":14915:14940   */\n      swap2\n      pop\n        /* \"#utility.yul\":14954:14974   */\n      tag_337\n        /* \"#utility.yul\":14972:14973   */\n      dup4\n        /* \"#utility.yul\":14954:14974   */\n      tag_142\n      jump\t// in\n    tag_337:\n        /* \"#utility.yul\":14949:14974   */\n      swap3\n      pop\n        /* \"#utility.yul\":14993:14994   */\n      dup3\n        /* \"#utility.yul\":14983:15018   */\n      tag_338\n      jumpi\n        /* \"#utility.yul\":14998:15016   */\n      tag_339\n      tag_183\n      jump\t// in\n    tag_339:\n        /* \"#utility.yul\":14983:15018   */\n    tag_338:\n        /* \"#utility.yul\":15040:15041   */\n      dup3\n        /* \"#utility.yul\":15037:15038   */\n      dup3\n        /* \"#utility.yul\":15033:15042   */\n      div\n        /* \"#utility.yul\":15028:15042   */\n      swap1\n      pop\n        /* \"#utility.yul\":14863:15048   */\n      swap3\n      swap2\n      pop\n      pop\n      jump\t// out\n        /* \"#utility.yul\":15054:15234   */\n    tag_185:\n        /* \"#utility.yul\":15102:15179   */\n      0x4e487b7100000000000000000000000000000000000000000000000000000000\n        /* \"#utility.yul\":15099:15100   */\n      0x00\n        /* \"#utility.yul\":15092:15180   */\n      mstore\n        /* \"#utility.yul\":15199:15203   */\n      0x22\n        /* \"#utility.yul\":15196:15197   */\n      0x04\n        /* \"#utility.yul\":15189:15204   */\n      mstore\n        /* \"#utility.yul\":15223:15227   */\n      0x24\n        /* \"#utility.yul\":15220:15221   */\n      0x00\n        /* \"#utility.yul\":15213:15228   */\n      revert\n        /* \"#utility.yul\":15240:15560   */\n    tag_104:\n        /* \"#utility.yul\":15284:15290   */\n      0x00\n        /* \"#utility.yul\":15321:15322   */\n      0x02\n        /* \"#utility.yul\":15315:15319   */\n      dup3\n        /* \"#utility.yul\":15311:15323   */\n      div\n        /* \"#utility.yul\":15301:15323   */\n      swap1\n      pop\n        /* \"#utility.yul\":15368:15369   */\n      0x01\n        /* \"#utility.yul\":15362:15366   */\n      dup3\n        /* \"#utility.yul\":15358:15370   */\n      and\n        /* \"#utility.yul\":15389:15407   */\n      dup1\n        /* \"#utility.yul\":15379:15460   */\n      tag_342\n      jumpi\n        /* \"#utility.yul\":15445:15449   */\n      0x7f\n        /* \"#utility.yul\":15437:15443   */\n      dup3\n        /* \"#utility.yul\":15433:15450   */\n      and\n        /* \"#utility.yul\":15423:15450   */\n      swap2\n      pop\n        /* \"#utility.yul\":15379:15460   */\n    tag_342:\n        /* \"#utility.yul\":15507:15509   */\n      0x20\n        /* \"#utility.yul\":15499:15505   */\n      dup3\n        /* \"#utility.yul\":15496:15510   */\n      lt\n        /* \"#utility.yul\":15476:15494   */\n      dup2\n        /* \"#utility.yul\":15473:15511   */\n      eq\n        /* \"#utility.yul\":15470:15554   */\n      iszero\n      tag_343\n      jumpi\n        /* \"#utility.yul\":15526:15544   */\n      tag_344\n      tag_185\n      jump\t// in\n    tag_344:\n        /* \"#utility.yul\":15470:15554   */\n    tag_343:\n        /* \"#utility.yul\":15291:15560   */\n      pop\n        /* \"#utility.yul\":15240:15560   */\n      swap2\n      swap1\n      pop\n      jump\t// out\n        /* \"#utility.yul\":15566:15799   */\n    tag_112:\n        /* \"#utility.yul\":15605:15608   */\n      0x00\n        /* \"#utility.yul\":15628:15652   */\n      tag_346\n        /* \"#utility.yul\":15646:15651   */\n      dup3\n        /* \"#utility.yul\":15628:15652   */\n      tag_142\n      jump\t// in\n    tag_346:\n        /* \"#utility.yul\":15619:15652   */\n      swap2\n      pop\n        /* \"#utility.yul\":15674:15740   */\n      0xffffffffffffffffffffffffffffffffffffffffffffffffffffffffffffffff\n        /* \"#utility.yul\":15667:15672   */\n      dup3\n        /* \"#utility.yul\":15664:15741   */\n      eq\n        /* \"#utility.yul\":15661:15764   */\n      iszero\n      tag_347\n      jumpi\n        /* \"#utility.yul\":15744:15762   */\n      tag_348\n      tag_184\n      jump\t// in\n    tag_348:\n        /* \"#utility.yul\":15661:15764   */\n    tag_347:\n        /* \"#utility.yul\":15791:15792   */\n      0x01\n        /* \"#utility.yul\":15784:15789   */\n      dup3\n        /* \"#utility.yul\":15780:15793   */\n      add\n        /* \"#utility.yul\":15773:15793   */\n      swap1\n      pop\n        /* \"#utility.yul\":15566:15799   */\n      swap2\n      swap1\n      pop\n      jump\t// out\n\n    auxdata: 0xa26469706673582212205ffe3769fb0359461bc92e0c637a2df974e58a24f2d498d9bc23a74ad1675a8a64736f6c634300080c0033\n}\n","bytecode":{"linkReferences":{},"object":"60806040523480156200001157600080fd5b506040516200154e3803806200154e83398181016040528101906200003791906200012c565b81600160006101000a81548173ffffffffffffffffffffffffffffffffffffffff021916908373ffffffffffffffffffffffffffffffffffffffff16021790555080600281905550505062000173565b600080fd5b600073ffffffffffffffffffffffffffffffffffffffff82169050919050565b6000620000b9826200008c565b9050919050565b620000cb81620000ac565b8114620000d757600080fd5b50565b600081519050620000eb81620000c0565b92915050565b6000819050919050565b6200010681620000f1565b81146200011257600080fd5b50565b6000815190506200012681620000fb565b92915050565b6000806040838503121562000146576200014562000087565b5b60006200015685828601620000da565b9250506020620001698582860162000115565b9150509250929050565b6113cb80620001836000396000f3fe6080604052600436106100c25760003560e01c8063937e09b11161007f578063d7bb99ba11610059578063d7bb99ba14610272578063d7d1bbdb1461027c578063fb1a002a146102a5578063ffabc673146102d0576100c2565b8063937e09b1146101dd578063a87f62e414610208578063d435880014610231576100c2565b806303441006146100c75780630a144391146100f05780633410452a1461012d5780634051ddac14610158578063481c6a751461018757806382fde093146101b2575b600080fd5b3480156100d357600080fd5b506100ee60048036038101906100e99190610ba3565b61030d565b005b3480156100fc57600080fd5b5061011760048036038101906101129190610c2e565b610456565b6040516101249190610c76565b60405180910390f35b34801561013957600080fd5b50610142610476565b60405161014f9190610ca0565b60405180910390f35b34801561016457600080fd5b5061016d610482565b60405161017e959493929190610cca565b60405180910390f35b34801561019357600080fd5b5061019c6104cb565b6040516101a99190610d1d565b60405180910390f35b3480156101be57600080fd5b506101c76104f1565b6040516101d49190610ca0565b60405180910390f35b3480156101e957600080fd5b506101f26104f7565b6040516101ff9190610ca0565b60405180910390f35b34801561021457600080fd5b5061022f600480360381019061022a9190610ebc565b6104fd565b005b34801561023d57600080fd5b5061025860048036038101906102539190610ba3565b610668565b604051610269959493929190610fc2565b60405180910390f35b61027a610763565b005b34801561028857600080fd5b506102a3600480360381019061029e9190610ba3565b6107e4565b005b3480156102b157600080fd5b506102ba610911565b6040516102c791906111cb565b60405180910390f35b3480156102dc57600080fd5b506102f760048036038101906102f291906111ed565b610a87565b6040516103049190610c76565b60405180910390f35b600160009054906101000a900473ffffffffffffffffffffffffffffffffffffffff1673ffffffffffffffffffffffffffffffffffffffff163373ffffffffffffffffffffffffffffffffffffffff161461036757600080fd5b600080828154811061037c5761037b61122d565b5b90600052602060002090600402019050600260045461039b91906112ba565b8160030154116103aa57600080fd5b8060020160149054906101000a900460ff16156103c657600080fd5b8060020160009054906101000a900473ffffffffffffffffffffffffffffffffffffffff1673ffffffffffffffffffffffffffffffffffffffff166108fc82600101549081150290604051600060405180830381858888f19350505050158015610434573d6000803e3d6000fd5b5060018160020160146101000a81548160ff0219169083151502179055505050565b60036020528060005260406000206000915054906101000a900460ff1681565b60008080549050905090565b600080600080600060025447600080549050600454600160009054906101000a900473ffffffffffffffffffffffffffffffffffffffff16945094509450945094509091929394565b600160009054906101000a900473ffffffffffffffffffffffffffffffffffffffff1681565b60045481565b60025481565b600160009054906101000a900473ffffffffffffffffffffffffffffffffffffffff1673ffffffffffffffffffffffffffffffffffffffff163373ffffffffffffffffffffffffffffffffffffffff161461055757600080fd5b60006040518060a001604052808581526020018481526020018373ffffffffffffffffffffffffffffffffffffffff16815260200160001515815260200160008152509050600081908060018154018082558091505060019003906000526020600020906004020160009091909190915060008201518160000190805190602001906105e4929190610ab6565b506020820151816001015560408201518160020160006101000a81548173ffffffffffffffffffffffffffffffffffffffff021916908373ffffffffffffffffffffffffffffffffffffffff16021790555060608201518160020160146101000a81548160ff02191690831515021790555060808201518160030155505050505050565b6000818154811061067857600080fd5b906000526020600020906004020160009150905080600001805461069b9061131a565b80601f01602080910402602001604051908101604052809291908181526020018280546106c79061131a565b80156107145780601f106106e957610100808354040283529160200191610714565b820191906000526020600020905b8154815290600101906020018083116106f757829003601f168201915b5050505050908060010154908060020160009054906101000a900473ffffffffffffffffffffffffffffffffffffffff16908060020160149054906101000a900460ff16908060030154905085565b60025434101561077257600080fd5b6001600360003373ffffffffffffffffffffffffffffffffffffffff1673ffffffffffffffffffffffffffffffffffffffff16815260200190815260200160002060006101000a81548160ff021916908315150217905550600460008154809291906107dd9061134c565b9190505550565b600360003373ffffffffffffffffffffffffffffffffffffffff1673ffffffffffffffffffffffffffffffffffffffff16815260200190815260200160002060009054906101000a900460ff1661083a57600080fd5b6000600560003373ffffffffffffffffffffffffffffffffffffffff1673ffffffffffffffffffffffffffffffffffffffff168152602001908152602001600020905080600083815260200190815260200160002060009054906101000a900460ff16156108a757600080fd5b600181600084815260200190815260200160002060006101000a81548160ff021916908315150217905550600082815481106108e6576108e561122d565b5b906000526020600020906004020160030160008154809291906109089061134c565b91905055505050565b60606000805480602002602001604051908101604052809291908181526020016000905b82821015610a7e57838290600052602060002090600402016040518060a00160405290816000820180546109689061131a565b80601f01602080910402602001604051908101604052809291908181526020018280546109949061131a565b80156109e15780601f106109b6576101008083540402835291602001916109e1565b820191906000526020600020905b8154815290600101906020018083116109c457829003601f168201915b50505050508152602001600182015481526020016002820160009054906101000a900473ffffffffffffffffffffffffffffffffffffffff1673ffffffffffffffffffffffffffffffffffffffff1673ffffffffffffffffffffffffffffffffffffffff1681526020016002820160149054906101000a900460ff1615151515815260200160038201548152505081526020019060010190610935565b50505050905090565b60056020528160005260406000206020528060005260406000206000915091509054906101000a900460ff1681565b828054610ac29061131a565b90600052602060002090601f016020900481019282610ae45760008555610b2b565b82601f10610afd57805160ff1916838001178555610b2b565b82800160010185558215610b2b579182015b82811115610b2a578251825591602001919060010190610b0f565b5b509050610b389190610b3c565b5090565b5b80821115610b55576000816000905550600101610b3d565b5090565b6000604051905090565b600080fd5b600080fd5b6000819050919050565b610b8081610b6d565b8114610b8b57600080fd5b50565b600081359050610b9d81610b77565b92915050565b600060208284031215610bb957610bb8610b63565b5b6000610bc784828501610b8e565b91505092915050565b600073ffffffffffffffffffffffffffffffffffffffff82169050919050565b6000610bfb82610bd0565b9050919050565b610c0b81610bf0565b8114610c1657600080fd5b50565b600081359050610c2881610c02565b92915050565b600060208284031215610c4457610c43610b63565b5b6000610c5284828501610c19565b91505092915050565b60008115159050919050565b610c7081610c5b565b82525050565b6000602082019050610c8b6000830184610c67565b92915050565b610c9a81610b6d565b82525050565b6000602082019050610cb56000830184610c91565b92915050565b610cc481610bf0565b82525050565b600060a082019050610cdf6000830188610c91565b610cec6020830187610c91565b610cf96040830186610c91565b610d066060830185610c91565b610d136080830184610cbb565b9695505050505050565b6000602082019050610d326000830184610cbb565b92915050565b600080fd5b600080fd5b6000601f19601f8301169050919050565b7f4e487b7100000000000000000000000000000000000000000000000000000000600052604160045260246000fd5b610d8b82610d42565b810181811067ffffffffffffffff82111715610daa57610da9610d53565b5b80604052505050565b6000610dbd610b59565b9050610dc98282610d82565b919050565b600067ffffffffffffffff821115610de957610de8610d53565b5b610df282610d42565b9050602081019050919050565b82818337600083830152505050565b6000610e21610e1c84610dce565b610db3565b905082815260208101848484011115610e3d57610e3c610d3d565b5b610e48848285610dff565b509392505050565b600082601f830112610e6557610e64610d38565b5b8135610e75848260208601610e0e565b91505092915050565b6000610e8982610bd0565b9050919050565b610e9981610e7e565b8114610ea457600080fd5b50565b600081359050610eb681610e90565b92915050565b600080600060608486031215610ed557610ed4610b63565b5b600084013567ffffffffffffffff811115610ef357610ef2610b68565b5b610eff86828701610e50565b9350506020610f1086828701610b8e565b9250506040610f2186828701610ea7565b9150509250925092565b600081519050919050565b600082825260208201905092915050565b60005b83811015610f65578082015181840152602081019050610f4a565b83811115610f74576000848401525b50505050565b6000610f8582610f2b565b610f8f8185610f36565b9350610f9f818560208601610f47565b610fa881610d42565b840191505092915050565b610fbc81610e7e565b82525050565b600060a0820190508181036000830152610fdc8188610f7a565b9050610feb6020830187610c91565b610ff86040830186610fb3565b6110056060830185610c67565b6110126080830184610c91565b9695505050505050565b600081519050919050565b600082825260208201905092915050565b6000819050602082019050919050565b600082825260208201905092915050565b600061106482610f2b565b61106e8185611048565b935061107e818560208601610f47565b61108781610d42565b840191505092915050565b61109b81610b6d565b82525050565b6110aa81610e7e565b82525050565b6110b981610c5b565b82525050565b600060a08301600083015184820360008601526110dc8282611059565b91505060208301516110f16020860182611092565b50604083015161110460408601826110a1565b50606083015161111760608601826110b0565b50608083015161112a6080860182611092565b508091505092915050565b600061114183836110bf565b905092915050565b6000602082019050919050565b60006111618261101c565b61116b8185611027565b93508360208202850161117d85611038565b8060005b858110156111b9578484038952815161119a8582611135565b94506111a583611149565b925060208a01995050600181019050611181565b50829750879550505050505092915050565b600060208201905081810360008301526111e58184611156565b905092915050565b6000806040838503121561120457611203610b63565b5b600061121285828601610c19565b925050602061122385828601610b8e565b9150509250929050565b7f4e487b7100000000000000000000000000000000000000000000000000000000600052603260045260246000fd5b7f4e487b7100000000000000000000000000000000000000000000000000000000600052601260045260246000fd5b7f4e487b7100000000000000000000000000000000000000000000000000000000600052601160045260246000fd5b60006112c582610b6d565b91506112d083610b6d565b9250826112e0576112df61125c565b5b828204905092915050565b7f4e487b7100000000000000000000000000000000000000000000000000000000600052602260045260246000fd5b6000600282049050600182168061133257607f821691505b60208210811415611346576113456112eb565b5b50919050565b600061135782610b6d565b91507fffffffffffffffffffffffffffffffffffffffffffffffffffffffffffffffff82141561138a5761138961128b565b5b60018201905091905056fea26469706673582212205ffe3769fb0359461bc92e0c637a2df974e58a24f2d498d9bc23a74ad1675a8a64736f6c634300080c0033","opcodes":"PUSH1 0x80 PUSH1 0x40 MSTORE CALLVALUE DUP1 ISZERO PUSH3 0x11 JUMPI PUSH1 0x0 DUP1 REVERT JUMPDEST POP PUSH1 0x40 MLOAD PUSH3 0x154E CODESIZE SUB DUP1 PUSH3 0x154E DUP4 CODECOPY DUP2 DUP2 ADD PUSH1 0x40 MSTORE DUP2 ADD SWAP1 PUSH3 0x37 SWAP2 SWAP1 PUSH3 0x12C JUMP JUMPDEST DUP2 PUSH1 0x1 PUSH1 0x0 PUSH2 0x100 EXP DUP2 SLOAD DUP2 PUSH20 0xFFFFFFFFFFFFFFFFFFFFFFFFFFFFFFFFFFFFFFFF MUL NOT AND SWAP1 DUP4 PUSH20 0xFFFFFFFFFFFFFFFFFFFFFFFFFFFFFFFFFFFFFFFF AND MUL OR SWAP1 SSTORE POP DUP1 PUSH1 0x2 DUP2 SWAP1 SSTORE POP POP POP PUSH3 0x173 JUMP JUMPDEST PUSH1 0x0 DUP1 REVERT JUMPDEST PUSH1 0x0 PUSH20 0xFFFFFFFFFFFFFFFFFFFFFFFFFFFFFFFFFFFFFFFF DUP3 AND SWAP1 POP SWAP2 SWAP1 POP JUMP JUMPDEST PUSH1 0x0 PUSH3 0xB9 DUP3 PUSH3 0x8C JUMP JUMPDEST SWAP1 POP SWAP2 SWAP1 POP JUMP JUMPDEST PUSH3 0xCB DUP2 PUSH3 0xAC JUMP JUMPDEST DUP2 EQ PUSH3 0xD7 JUMPI PUSH1 0x0 DUP1 REVERT JUMPDEST POP JUMP JUMPDEST PUSH1 0x0 DUP2 MLOAD SWAP1 POP PUSH3 0xEB DUP2 PUSH3 0xC0 JUMP JUMPDEST SWAP3 SWAP2 POP POP JUMP JUMPDEST PUSH1 0x0 DUP2 SWAP1 POP SWAP2 SWAP1 POP JUMP JUMPDEST PUSH3 0x106 DUP2 PUSH3 0xF1 JUMP JUMPDEST DUP2 EQ PUSH3 0x112 JUMPI PUSH1 0x0 DUP1 REVERT JUMPDEST POP JUMP JUMPDEST PUSH1 0x0 DUP2 MLOAD SWAP1 POP PUSH3 0x126 DUP2 PUSH3 0xFB JUMP JUMPDEST SWAP3 SWAP2 POP POP JUMP JUMPDEST PUSH1 0x0 DUP1 PUSH1 0x40 DUP4 DUP6 SUB SLT ISZERO PUSH3 0x146 JUMPI PUSH3 0x145 PUSH3 0x87 JUMP JUMPDEST JUMPDEST PUSH1 0x0 PUSH3 0x156 DUP6 DUP3 DUP7 ADD PUSH3 0xDA JUMP JUMPDEST SWAP3 POP POP PUSH1 0x20 PUSH3 0x169 DUP6 DUP3 DUP7 ADD PUSH3 0x115 JUMP JUMPDEST SWAP2 POP POP SWAP3 POP SWAP3 SWAP1 POP JUMP JUMPDEST PUSH2 0x13CB DUP1 PUSH3 0x183 PUSH1 0x0 CODECOPY PUSH1 0x0 RETURN INVALID PUSH1 0x80 PUSH1 0x40 MSTORE PUSH1 0x4 CALLDATASIZE LT PUSH2 0xC2 JUMPI PUSH1 0x0 CALLDATALOAD PUSH1 0xE0 SHR DUP1 PUSH4 0x937E09B1 GT PUSH2 0x7F JUMPI DUP1 PUSH4 0xD7BB99BA GT PUSH2 0x59 JUMPI DUP1 PUSH4 0xD7BB99BA EQ PUSH2 0x272 JUMPI DUP1 PUSH4 0xD7D1BBDB EQ PUSH2 0x27C JUMPI DUP1 PUSH4 0xFB1A002A EQ PUSH2 0x2A5 JUMPI DUP1 PUSH4 0xFFABC673 EQ PUSH2 0x2D0 JUMPI PUSH2 0xC2 JUMP JUMPDEST DUP1 PUSH4 0x937E09B1 EQ PUSH2 0x1DD JUMPI DUP1 PUSH4 0xA87F62E4 EQ PUSH2 0x208 JUMPI DUP1 PUSH4 0xD4358800 EQ PUSH2 0x231 JUMPI PUSH2 0xC2 JUMP JUMPDEST DUP1 PUSH4 0x3441006 EQ PUSH2 0xC7 JUMPI DUP1 PUSH4 0xA144391 EQ PUSH2 0xF0 JUMPI DUP1 PUSH4 0x3410452A EQ PUSH2 0x12D JUMPI DUP1 PUSH4 0x4051DDAC EQ PUSH2 0x158 JUMPI DUP1 PUSH4 0x481C6A75 EQ PUSH2 0x187 JUMPI DUP1 PUSH4 0x82FDE093 EQ PUSH2 0x1B2 JUMPI JUMPDEST PUSH1 0x0 DUP1 REVERT JUMPDEST CALLVALUE DUP1 ISZERO PUSH2 0xD3 JUMPI PUSH1 0x0 DUP1 REVERT JUMPDEST POP PUSH2 0xEE PUSH1 0x4 DUP1 CALLDATASIZE SUB DUP2 ADD SWAP1 PUSH2 0xE9 SWAP2 SWAP1 PUSH2 0xBA3 JUMP JUMPDEST PUSH2 0x30D JUMP JUMPDEST STOP JUMPDEST CALLVALUE DUP1 ISZERO PUSH2 0xFC JUMPI PUSH1 0x0 DUP1 REVERT JUMPDEST POP PUSH2 0x117 PUSH1 0x4 DUP1 CALLDATASIZE SUB DUP2 ADD SWAP1 PUSH2 0x112 SWAP2 SWAP1 PUSH2 0xC2E JUMP JUMPDEST PUSH2 0x456 JUMP JUMPDEST PUSH1 0x40 MLOAD PUSH2 0x124 SWAP2 SWAP1 PUSH2 0xC76 JUMP JUMPDEST PUSH1 0x40 MLOAD DUP1 SWAP2 SUB SWAP1 RETURN JUMPDEST CALLVALUE DUP1 ISZERO PUSH2 0x139 JUMPI PUSH1 0x0 DUP1 REVERT JUMPDEST POP PUSH2 0x142 PUSH2 0x476 JUMP JUMPDEST PUSH1 0x40 MLOAD PUSH2 0x14F SWAP2 SWAP1 PUSH2 0xCA0 JUMP JUMPDEST PUSH1 0x40 MLOAD DUP1 SWAP2 SUB SWAP1 RETURN JUMPDEST CALLVALUE DUP1 ISZERO PUSH2 0x164 JUMPI PUSH1 0x0 DUP1 REVERT JUMPDEST POP PUSH2 0x16D PUSH2 0x482 JUMP JUMPDEST PUSH1 0x40 MLOAD PUSH2 0x17E SWAP6 SWAP5 SWAP4 SWAP3 SWAP2 SWAP1 PUSH2 0xCCA JUMP JUMPDEST PUSH1 0x40 MLOAD DUP1 SWAP2 SUB SWAP1 RETURN JUMPDEST CALLVALUE DUP1 ISZERO PUSH2 0x193 JUMPI PUSH1 0x0 DUP1 REVERT JUMPDEST POP PUSH2 0x19C PUSH2 0x4CB JUMP JUMPDEST PUSH1 0x40 MLOAD PUSH2 0x1A9 SWAP2 SWAP1 PUSH2 0xD1D JUMP JUMPDEST PUSH1 0x40 MLOAD DUP1 SWAP2 SUB SWAP1 RETURN JUMPDEST CALLVALUE DUP1 ISZERO PUSH2 0x1BE JUMPI PUSH1 0x0 DUP1 REVERT JUMPDEST POP PUSH2 0x1C7 PUSH2 0x4F1 JUMP JUMPDEST PUSH1 0x40 MLOAD PUSH2 0x1D4 SWAP2 SWAP1 PUSH2 0xCA0 JUMP JUMPDEST PUSH1 0x40 MLOAD DUP1 SWAP2 SUB SWAP1 RETURN JUMPDEST CALLVALUE DUP1 ISZERO PUSH2 0x1E9 JUMPI PUSH1 0x0 DUP1 REVERT JUMPDEST POP PUSH2 0x1F2 PUSH2 0x4F7 JUMP JUMPDEST PUSH1 0x40 MLOAD PUSH2 0x1FF SWAP2 SWAP1 PUSH2 0xCA0 JUMP JUMPDEST PUSH1 0x40 MLOAD DUP1 SWAP2 SUB SWAP1 RETURN JUMPDEST CALLVALUE DUP1 ISZERO PUSH2 0x214 JUMPI PUSH1 0x0 DUP1 REVERT JUMPDEST POP PUSH2 0x22F PUSH1 0x4 DUP1 CALLDATASIZE SUB DUP2 ADD SWAP1 PUSH2 0x22A SWAP2 SWAP1 PUSH2 0xEBC JUMP JUMPDEST PUSH2 0x4FD JUMP JUMPDEST STOP JUMPDEST CALLVALUE DUP1 ISZERO PUSH2 0x23D JUMPI PUSH1 0x0 DUP1 REVERT JUMPDEST POP PUSH2 0x258 PUSH1 0x4 DUP1 CALLDATASIZE SUB DUP2 ADD SWAP1 PUSH2 0x253 SWAP2 SWAP1 PUSH2 0xBA3 JUMP JUMPDEST PUSH2 0x668 JUMP JUMPDEST PUSH1 0x40 MLOAD PUSH2 0x269 SWAP6 SWAP5 SWAP4 SWAP3 SWAP2 SWAP1 PUSH2 0xFC2 JUMP JUMPDEST PUSH1 0x40 MLOAD DUP1 SWAP2 SUB SWAP1 RETURN JUMPDEST PUSH2 0x27A PUSH2 0x763 JUMP JUMPDEST STOP JUMPDEST CALLVALUE DUP1 ISZERO PUSH2 0x288 JUMPI PUSH1 0x0 DUP1 REVERT JUMPDEST POP PUSH2 0x2A3 PUSH1 0x4 DUP1 CALLDATASIZE SUB DUP2 ADD SWAP1 PUSH2 0x29E SWAP2 SWAP1 PUSH2 0xBA3 JUMP JUMPDEST PUSH2 0x7E4 JUMP JUMPDEST STOP JUMPDEST CALLVALUE DUP1 ISZERO PUSH2 0x2B1 JUMPI PUSH1 0x0 DUP1 REVERT JUMPDEST POP PUSH2 0x2BA PUSH2 0x911 JUMP JUMPDEST PUSH1 0x40 MLOAD PUSH2 0x2C7 SWAP2 SWAP1 PUSH2 0x11CB JUMP JUMPDEST PUSH1 0x40 MLOAD DUP1 SWAP2 SUB SWAP1 RETURN JUMPDEST CALLVALUE DUP1 ISZERO PUSH2 0x2DC JUMPI PUSH1 0x0 DUP1 REVERT JUMPDEST POP PUSH2 0x2F7 PUSH1 0x4 DUP1 CALLDATASIZE SUB DUP2 ADD SWAP1 PUSH2 0x2F2 SWAP2 SWAP1 PUSH2 0x11ED JUMP JUMPDEST PUSH2 0xA87 JUMP JUMPDEST PUSH1 0x40 MLOAD PUSH2 0x304 SWAP2 SWAP1 PUSH2 0xC76 JUMP JUMPDEST PUSH1 0x40 MLOAD DUP1 SWAP2 SUB SWAP1 RETURN JUMPDEST PUSH1 0x1 PUSH1 0x0 SWAP1 SLOAD SWAP1 PUSH2 0x100 EXP SWAP1 DIV PUSH20 0xFFFFFFFFFFFFFFFFFFFFFFFFFFFFFFFFFFFFFFFF AND PUSH20 0xFFFFFFFFFFFFFFFFFFFFFFFFFFFFFFFFFFFFFFFF AND CALLER PUSH20 0xFFFFFFFFFFFFFFFFFFFFFFFFFFFFFFFFFFFFFFFF AND EQ PUSH2 0x367 JUMPI PUSH1 0x0 DUP1 REVERT JUMPDEST PUSH1 0x0 DUP1 DUP3 DUP2 SLOAD DUP2 LT PUSH2 0x37C JUMPI PUSH2 0x37B PUSH2 0x122D JUMP JUMPDEST JUMPDEST SWAP1 PUSH1 0x0 MSTORE PUSH1 0x20 PUSH1 0x0 KECCAK256 SWAP1 PUSH1 0x4 MUL ADD SWAP1 POP PUSH1 0x2 PUSH1 0x4 SLOAD PUSH2 0x39B SWAP2 SWAP1 PUSH2 0x12BA JUMP JUMPDEST DUP2 PUSH1 0x3 ADD SLOAD GT PUSH2 0x3AA JUMPI PUSH1 0x0 DUP1 REVERT JUMPDEST DUP1 PUSH1 0x2 ADD PUSH1 0x14 SWAP1 SLOAD SWAP1 PUSH2 0x100 EXP SWAP1 DIV PUSH1 0xFF AND ISZERO PUSH2 0x3C6 JUMPI PUSH1 0x0 DUP1 REVERT JUMPDEST DUP1 PUSH1 0x2 ADD PUSH1 0x0 SWAP1 SLOAD SWAP1 PUSH2 0x100 EXP SWAP1 DIV PUSH20 0xFFFFFFFFFFFFFFFFFFFFFFFFFFFFFFFFFFFFFFFF AND PUSH20 0xFFFFFFFFFFFFFFFFFFFFFFFFFFFFFFFFFFFFFFFF AND PUSH2 0x8FC DUP3 PUSH1 0x1 ADD SLOAD SWAP1 DUP2 ISZERO MUL SWAP1 PUSH1 0x40 MLOAD PUSH1 0x0 PUSH1 0x40 MLOAD DUP1 DUP4 SUB DUP2 DUP6 DUP9 DUP9 CALL SWAP4 POP POP POP POP ISZERO DUP1 ISZERO PUSH2 0x434 JUMPI RETURNDATASIZE PUSH1 0x0 DUP1 RETURNDATACOPY RETURNDATASIZE PUSH1 0x0 REVERT JUMPDEST POP PUSH1 0x1 DUP2 PUSH1 0x2 ADD PUSH1 0x14 PUSH2 0x100 EXP DUP2 SLOAD DUP2 PUSH1 0xFF MUL NOT AND SWAP1 DUP4 ISZERO ISZERO MUL OR SWAP1 SSTORE POP POP POP JUMP JUMPDEST PUSH1 0x3 PUSH1 0x20 MSTORE DUP1 PUSH1 0x0 MSTORE PUSH1 0x40 PUSH1 0x0 KECCAK256 PUSH1 0x0 SWAP2 POP SLOAD SWAP1 PUSH2 0x100 EXP SWAP1 DIV PUSH1 0xFF AND DUP2 JUMP JUMPDEST PUSH1 0x0 DUP1 DUP1 SLOAD SWAP1 POP SWAP1 POP SWAP1 JUMP JUMPDEST PUSH1 0x0 DUP1 PUSH1 0x0 DUP1 PUSH1 0x0 PUSH1 0x2 SLOAD SELFBALANCE PUSH1 0x0 DUP1 SLOAD SWAP1 POP PUSH1 0x4 SLOAD PUSH1 0x1 PUSH1 0x0 SWAP1 SLOAD SWAP1 PUSH2 0x100 EXP SWAP1 DIV PUSH20 0xFFFFFFFFFFFFFFFFFFFFFFFFFFFFFFFFFFFFFFFF AND SWAP5 POP SWAP5 POP SWAP5 POP SWAP5 POP SWAP5 POP SWAP1 SWAP2 SWAP3 SWAP4 SWAP5 JUMP JUMPDEST PUSH1 0x1 PUSH1 0x0 SWAP1 SLOAD SWAP1 PUSH2 0x100 EXP SWAP1 DIV PUSH20 0xFFFFFFFFFFFFFFFFFFFFFFFFFFFFFFFFFFFFFFFF AND DUP2 JUMP JUMPDEST PUSH1 0x4 SLOAD DUP2 JUMP JUMPDEST PUSH1 0x2 SLOAD DUP2 JUMP JUMPDEST PUSH1 0x1 PUSH1 0x0 SWAP1 SLOAD SWAP1 PUSH2 0x100 EXP SWAP1 DIV PUSH20 0xFFFFFFFFFFFFFFFFFFFFFFFFFFFFFFFFFFFFFFFF AND PUSH20 0xFFFFFFFFFFFFFFFFFFFFFFFFFFFFFFFFFFFFFFFF AND CALLER PUSH20 0xFFFFFFFFFFFFFFFFFFFFFFFFFFFFFFFFFFFFFFFF AND EQ PUSH2 0x557 JUMPI PUSH1 0x0 DUP1 REVERT JUMPDEST PUSH1 0x0 PUSH1 0x40 MLOAD DUP1 PUSH1 0xA0 ADD PUSH1 0x40 MSTORE DUP1 DUP6 DUP2 MSTORE PUSH1 0x20 ADD DUP5 DUP2 MSTORE PUSH1 0x20 ADD DUP4 PUSH20 0xFFFFFFFFFFFFFFFFFFFFFFFFFFFFFFFFFFFFFFFF AND DUP2 MSTORE PUSH1 0x20 ADD PUSH1 0x0 ISZERO ISZERO DUP2 MSTORE PUSH1 0x20 ADD PUSH1 0x0 DUP2 MSTORE POP SWAP1 POP PUSH1 0x0 DUP2 SWAP1 DUP1 PUSH1 0x1 DUP2 SLOAD ADD DUP1 DUP3 SSTORE DUP1 SWAP2 POP POP PUSH1 0x1 SWAP1 SUB SWAP1 PUSH1 0x0 MSTORE PUSH1 0x20 PUSH1 0x0 KECCAK256 SWAP1 PUSH1 0x4 MUL ADD PUSH1 0x0 SWAP1 SWAP2 SWAP1 SWAP2 SWAP1 SWAP2 POP PUSH1 0x0 DUP3 ADD MLOAD DUP2 PUSH1 0x0 ADD SWAP1 DUP1 MLOAD SWAP1 PUSH1 0x20 ADD SWAP1 PUSH2 0x5E4 SWAP3 SWAP2 SWAP1 PUSH2 0xAB6 JUMP JUMPDEST POP PUSH1 0x20 DUP3 ADD MLOAD DUP2 PUSH1 0x1 ADD SSTORE PUSH1 0x40 DUP3 ADD MLOAD DUP2 PUSH1 0x2 ADD PUSH1 0x0 PUSH2 0x100 EXP DUP2 SLOAD DUP2 PUSH20 0xFFFFFFFFFFFFFFFFFFFFFFFFFFFFFFFFFFFFFFFF MUL NOT AND SWAP1 DUP4 PUSH20 0xFFFFFFFFFFFFFFFFFFFFFFFFFFFFFFFFFFFFFFFF AND MUL OR SWAP1 SSTORE POP PUSH1 0x60 DUP3 ADD MLOAD DUP2 PUSH1 0x2 ADD PUSH1 0x14 PUSH2 0x100 EXP DUP2 SLOAD DUP2 PUSH1 0xFF MUL NOT AND SWAP1 DUP4 ISZERO ISZERO MUL OR SWAP1 SSTORE POP PUSH1 0x80 DUP3 ADD MLOAD DUP2 PUSH1 0x3 ADD SSTORE POP POP POP POP POP POP JUMP JUMPDEST PUSH1 0x0 DUP2 DUP2 SLOAD DUP2 LT PUSH2 0x678 JUMPI PUSH1 0x0 DUP1 REVERT JUMPDEST SWAP1 PUSH1 0x0 MSTORE PUSH1 0x20 PUSH1 0x0 KECCAK256 SWAP1 PUSH1 0x4 MUL ADD PUSH1 0x0 SWAP2 POP SWAP1 POP DUP1 PUSH1 0x0 ADD DUP1 SLOAD PUSH2 0x69B SWAP1 PUSH2 0x131A JUMP JUMPDEST DUP1 PUSH1 0x1F ADD PUSH1 0x20 DUP1 SWAP2 DIV MUL PUSH1 0x20 ADD PUSH1 0x40 MLOAD SWAP1 DUP2 ADD PUSH1 0x40 MSTORE DUP1 SWAP3 SWAP2 SWAP1 DUP2 DUP2 MSTORE PUSH1 0x20 ADD DUP3 DUP1 SLOAD PUSH2 0x6C7 SWAP1 PUSH2 0x131A JUMP JUMPDEST DUP1 ISZERO PUSH2 0x714 JUMPI DUP1 PUSH1 0x1F LT PUSH2 0x6E9 JUMPI PUSH2 0x100 DUP1 DUP4 SLOAD DIV MUL DUP4 MSTORE SWAP2 PUSH1 0x20 ADD SWAP2 PUSH2 0x714 JUMP JUMPDEST DUP3 ADD SWAP2 SWAP1 PUSH1 0x0 MSTORE PUSH1 0x20 PUSH1 0x0 KECCAK256 SWAP1 JUMPDEST DUP2 SLOAD DUP2 MSTORE SWAP1 PUSH1 0x1 ADD SWAP1 PUSH1 0x20 ADD DUP1 DUP4 GT PUSH2 0x6F7 JUMPI DUP3 SWAP1 SUB PUSH1 0x1F AND DUP3 ADD SWAP2 JUMPDEST POP POP POP POP POP SWAP1 DUP1 PUSH1 0x1 ADD SLOAD SWAP1 DUP1 PUSH1 0x2 ADD PUSH1 0x0 SWAP1 SLOAD SWAP1 PUSH2 0x100 EXP SWAP1 DIV PUSH20 0xFFFFFFFFFFFFFFFFFFFFFFFFFFFFFFFFFFFFFFFF AND SWAP1 DUP1 PUSH1 0x2 ADD PUSH1 0x14 SWAP1 SLOAD SWAP1 PUSH2 0x100 EXP SWAP1 DIV PUSH1 0xFF AND SWAP1 DUP1 PUSH1 0x3 ADD SLOAD SWAP1 POP DUP6 JUMP JUMPDEST PUSH1 0x2 SLOAD CALLVALUE LT ISZERO PUSH2 0x772 JUMPI PUSH1 0x0 DUP1 REVERT JUMPDEST PUSH1 0x1 PUSH1 0x3 PUSH1 0x0 CALLER PUSH20 0xFFFFFFFFFFFFFFFFFFFFFFFFFFFFFFFFFFFFFFFF AND PUSH20 0xFFFFFFFFFFFFFFFFFFFFFFFFFFFFFFFFFFFFFFFF AND DUP2 MSTORE PUSH1 0x20 ADD SWAP1 DUP2 MSTORE PUSH1 0x20 ADD PUSH1 0x0 KECCAK256 PUSH1 0x0 PUSH2 0x100 EXP DUP2 SLOAD DUP2 PUSH1 0xFF MUL NOT AND SWAP1 DUP4 ISZERO ISZERO MUL OR SWAP1 SSTORE POP PUSH1 0x4 PUSH1 0x0 DUP2 SLOAD DUP1 SWAP3 SWAP2 SWAP1 PUSH2 0x7DD SWAP1 PUSH2 0x134C JUMP JUMPDEST SWAP2 SWAP1 POP SSTORE POP JUMP JUMPDEST PUSH1 0x3 PUSH1 0x0 CALLER PUSH20 0xFFFFFFFFFFFFFFFFFFFFFFFFFFFFFFFFFFFFFFFF AND PUSH20 0xFFFFFFFFFFFFFFFFFFFFFFFFFFFFFFFFFFFFFFFF AND DUP2 MSTORE PUSH1 0x20 ADD SWAP1 DUP2 MSTORE PUSH1 0x20 ADD PUSH1 0x0 KECCAK256 PUSH1 0x0 SWAP1 SLOAD SWAP1 PUSH2 0x100 EXP SWAP1 DIV PUSH1 0xFF AND PUSH2 0x83A JUMPI PUSH1 0x0 DUP1 REVERT JUMPDEST PUSH1 0x0 PUSH1 0x5 PUSH1 0x0 CALLER PUSH20 0xFFFFFFFFFFFFFFFFFFFFFFFFFFFFFFFFFFFFFFFF AND PUSH20 0xFFFFFFFFFFFFFFFFFFFFFFFFFFFFFFFFFFFFFFFF AND DUP2 MSTORE PUSH1 0x20 ADD SWAP1 DUP2 MSTORE PUSH1 0x20 ADD PUSH1 0x0 KECCAK256 SWAP1 POP DUP1 PUSH1 0x0 DUP4 DUP2 MSTORE PUSH1 0x20 ADD SWAP1 DUP2 MSTORE PUSH1 0x20 ADD PUSH1 0x0 KECCAK256 PUSH1 0x0 SWAP1 SLOAD SWAP1 PUSH2 0x100 EXP SWAP1 DIV PUSH1 0xFF AND ISZERO PUSH2 0x8A7 JUMPI PUSH1 0x0 DUP1 REVERT JUMPDEST PUSH1 0x1 DUP2 PUSH1 0x0 DUP5 DUP2 MSTORE PUSH1 0x20 ADD SWAP1 DUP2 MSTORE PUSH1 0x20 ADD PUSH1 0x0 KECCAK256 PUSH1 0x0 PUSH2 0x100 EXP DUP2 SLOAD DUP2 PUSH1 0xFF MUL NOT AND SWAP1 DUP4 ISZERO ISZERO MUL OR SWAP1 SSTORE POP PUSH1 0x0 DUP3 DUP2 SLOAD DUP2 LT PUSH2 0x8E6 JUMPI PUSH2 0x8E5 PUSH2 0x122D JUMP JUMPDEST JUMPDEST SWAP1 PUSH1 0x0 MSTORE PUSH1 0x20 PUSH1 0x0 KECCAK256 SWAP1 PUSH1 0x4 MUL ADD PUSH1 0x3 ADD PUSH1 0x0 DUP2 SLOAD DUP1 SWAP3 SWAP2 SWAP1 PUSH2 0x908 SWAP1 PUSH2 0x134C JUMP JUMPDEST SWAP2 SWAP1 POP SSTORE POP POP POP JUMP JUMPDEST PUSH1 0x60 PUSH1 0x0 DUP1 SLOAD DUP1 PUSH1 0x20 MUL PUSH1 0x20 ADD PUSH1 0x40 MLOAD SWAP1 DUP2 ADD PUSH1 0x40 MSTORE DUP1 SWAP3 SWAP2 SWAP1 DUP2 DUP2 MSTORE PUSH1 0x20 ADD PUSH1 0x0 SWAP1 JUMPDEST DUP3 DUP3 LT ISZERO PUSH2 0xA7E JUMPI DUP4 DUP3 SWAP1 PUSH1 0x0 MSTORE PUSH1 0x20 PUSH1 0x0 KECCAK256 SWAP1 PUSH1 0x4 MUL ADD PUSH1 0x40 MLOAD DUP1 PUSH1 0xA0 ADD PUSH1 0x40 MSTORE SWAP1 DUP2 PUSH1 0x0 DUP3 ADD DUP1 SLOAD PUSH2 0x968 SWAP1 PUSH2 0x131A JUMP JUMPDEST DUP1 PUSH1 0x1F ADD PUSH1 0x20 DUP1 SWAP2 DIV MUL PUSH1 0x20 ADD PUSH1 0x40 MLOAD SWAP1 DUP2 ADD PUSH1 0x40 MSTORE DUP1 SWAP3 SWAP2 SWAP1 DUP2 DUP2 MSTORE PUSH1 0x20 ADD DUP3 DUP1 SLOAD PUSH2 0x994 SWAP1 PUSH2 0x131A JUMP JUMPDEST DUP1 ISZERO PUSH2 0x9E1 JUMPI DUP1 PUSH1 0x1F LT PUSH2 0x9B6 JUMPI PUSH2 0x100 DUP1 DUP4 SLOAD DIV MUL DUP4 MSTORE SWAP2 PUSH1 0x20 ADD SWAP2 PUSH2 0x9E1 JUMP JUMPDEST DUP3 ADD SWAP2 SWAP1 PUSH1 0x0 MSTORE PUSH1 0x20 PUSH1 0x0 KECCAK256 SWAP1 JUMPDEST DUP2 SLOAD DUP2 MSTORE SWAP1 PUSH1 0x1 ADD SWAP1 PUSH1 0x20 ADD DUP1 DUP4 GT PUSH2 0x9C4 JUMPI DUP3 SWAP1 SUB PUSH1 0x1F AND DUP3 ADD SWAP2 JUMPDEST POP POP POP POP POP DUP2 MSTORE PUSH1 0x20 ADD PUSH1 0x1 DUP3 ADD SLOAD DUP2 MSTORE PUSH1 0x20 ADD PUSH1 0x2 DUP3 ADD PUSH1 0x0 SWAP1 SLOAD SWAP1 PUSH2 0x100 EXP SWAP1 DIV PUSH20 0xFFFFFFFFFFFFFFFFFFFFFFFFFFFFFFFFFFFFFFFF AND PUSH20 0xFFFFFFFFFFFFFFFFFFFFFFFFFFFFFFFFFFFFFFFF AND PUSH20 0xFFFFFFFFFFFFFFFFFFFFFFFFFFFFFFFFFFFFFFFF AND DUP2 MSTORE PUSH1 0x20 ADD PUSH1 0x2 DUP3 ADD PUSH1 0x14 SWAP1 SLOAD SWAP1 PUSH2 0x100 EXP SWAP1 DIV PUSH1 0xFF AND ISZERO ISZERO ISZERO ISZERO DUP2 MSTORE PUSH1 0x20 ADD PUSH1 0x3 DUP3 ADD SLOAD DUP2 MSTORE POP POP DUP2 MSTORE PUSH1 0x20 ADD SWAP1 PUSH1 0x1 ADD SWAP1 PUSH2 0x935 JUMP JUMPDEST POP POP POP POP SWAP1 POP SWAP1 JUMP JUMPDEST PUSH1 0x5 PUSH1 0x20 MSTORE DUP2 PUSH1 0x0 MSTORE PUSH1 0x40 PUSH1 0x0 KECCAK256 PUSH1 0x20 MSTORE DUP1 PUSH1 0x0 MSTORE PUSH1 0x40 PUSH1 0x0 KECCAK256 PUSH1 0x0 SWAP2 POP SWAP2 POP SWAP1 SLOAD SWAP1 PUSH2 0x100 EXP SWAP1 DIV PUSH1 0xFF AND DUP2 JUMP JUMPDEST DUP3 DUP1 SLOAD PUSH2 0xAC2 SWAP1 PUSH2 0x131A JUMP JUMPDEST SWAP1 PUSH1 0x0 MSTORE PUSH1 0x20 PUSH1 0x0 KECCAK256 SWAP1 PUSH1 0x1F ADD PUSH1 0x20 SWAP1 DIV DUP2 ADD SWAP3 DUP3 PUSH2 0xAE4 JUMPI PUSH1 0x0 DUP6 SSTORE PUSH2 0xB2B JUMP JUMPDEST DUP3 PUSH1 0x1F LT PUSH2 0xAFD JUMPI DUP1 MLOAD PUSH1 0xFF NOT AND DUP4 DUP1 ADD OR DUP6 SSTORE PUSH2 0xB2B JUMP JUMPDEST DUP3 DUP1 ADD PUSH1 0x1 ADD DUP6 SSTORE DUP3 ISZERO PUSH2 0xB2B JUMPI SWAP2 DUP3 ADD JUMPDEST DUP3 DUP2 GT ISZERO PUSH2 0xB2A JUMPI DUP3 MLOAD DUP3 SSTORE SWAP2 PUSH1 0x20 ADD SWAP2 SWAP1 PUSH1 0x1 ADD SWAP1 PUSH2 0xB0F JUMP JUMPDEST JUMPDEST POP SWAP1 POP PUSH2 0xB38 SWAP2 SWAP1 PUSH2 0xB3C JUMP JUMPDEST POP SWAP1 JUMP JUMPDEST JUMPDEST DUP1 DUP3 GT ISZERO PUSH2 0xB55 JUMPI PUSH1 0x0 DUP2 PUSH1 0x0 SWAP1 SSTORE POP PUSH1 0x1 ADD PUSH2 0xB3D JUMP JUMPDEST POP SWAP1 JUMP JUMPDEST PUSH1 0x0 PUSH1 0x40 MLOAD SWAP1 POP SWAP1 JUMP JUMPDEST PUSH1 0x0 DUP1 REVERT JUMPDEST PUSH1 0x0 DUP1 REVERT JUMPDEST PUSH1 0x0 DUP2 SWAP1 POP SWAP2 SWAP1 POP JUMP JUMPDEST PUSH2 0xB80 DUP2 PUSH2 0xB6D JUMP JUMPDEST DUP2 EQ PUSH2 0xB8B JUMPI PUSH1 0x0 DUP1 REVERT JUMPDEST POP JUMP JUMPDEST PUSH1 0x0 DUP2 CALLDATALOAD SWAP1 POP PUSH2 0xB9D DUP2 PUSH2 0xB77 JUMP JUMPDEST SWAP3 SWAP2 POP POP JUMP JUMPDEST PUSH1 0x0 PUSH1 0x20 DUP3 DUP5 SUB SLT ISZERO PUSH2 0xBB9 JUMPI PUSH2 0xBB8 PUSH2 0xB63 JUMP JUMPDEST JUMPDEST PUSH1 0x0 PUSH2 0xBC7 DUP5 DUP3 DUP6 ADD PUSH2 0xB8E JUMP JUMPDEST SWAP2 POP POP SWAP3 SWAP2 POP POP JUMP JUMPDEST PUSH1 0x0 PUSH20 0xFFFFFFFFFFFFFFFFFFFFFFFFFFFFFFFFFFFFFFFF DUP3 AND SWAP1 POP SWAP2 SWAP1 POP JUMP JUMPDEST PUSH1 0x0 PUSH2 0xBFB DUP3 PUSH2 0xBD0 JUMP JUMPDEST SWAP1 POP SWAP2 SWAP1 POP JUMP JUMPDEST PUSH2 0xC0B DUP2 PUSH2 0xBF0 JUMP JUMPDEST DUP2 EQ PUSH2 0xC16 JUMPI PUSH1 0x0 DUP1 REVERT JUMPDEST POP JUMP JUMPDEST PUSH1 0x0 DUP2 CALLDATALOAD SWAP1 POP PUSH2 0xC28 DUP2 PUSH2 0xC02 JUMP JUMPDEST SWAP3 SWAP2 POP POP JUMP JUMPDEST PUSH1 0x0 PUSH1 0x20 DUP3 DUP5 SUB SLT ISZERO PUSH2 0xC44 JUMPI PUSH2 0xC43 PUSH2 0xB63 JUMP JUMPDEST JUMPDEST PUSH1 0x0 PUSH2 0xC52 DUP5 DUP3 DUP6 ADD PUSH2 0xC19 JUMP JUMPDEST SWAP2 POP POP SWAP3 SWAP2 POP POP JUMP JUMPDEST PUSH1 0x0 DUP2 ISZERO ISZERO SWAP1 POP SWAP2 SWAP1 POP JUMP JUMPDEST PUSH2 0xC70 DUP2 PUSH2 0xC5B JUMP JUMPDEST DUP3 MSTORE POP POP JUMP JUMPDEST PUSH1 0x0 PUSH1 0x20 DUP3 ADD SWAP1 POP PUSH2 0xC8B PUSH1 0x0 DUP4 ADD DUP5 PUSH2 0xC67 JUMP JUMPDEST SWAP3 SWAP2 POP POP JUMP JUMPDEST PUSH2 0xC9A DUP2 PUSH2 0xB6D JUMP JUMPDEST DUP3 MSTORE POP POP JUMP JUMPDEST PUSH1 0x0 PUSH1 0x20 DUP3 ADD SWAP1 POP PUSH2 0xCB5 PUSH1 0x0 DUP4 ADD DUP5 PUSH2 0xC91 JUMP JUMPDEST SWAP3 SWAP2 POP POP JUMP JUMPDEST PUSH2 0xCC4 DUP2 PUSH2 0xBF0 JUMP JUMPDEST DUP3 MSTORE POP POP JUMP JUMPDEST PUSH1 0x0 PUSH1 0xA0 DUP3 ADD SWAP1 POP PUSH2 0xCDF PUSH1 0x0 DUP4 ADD DUP9 PUSH2 0xC91 JUMP JUMPDEST PUSH2 0xCEC PUSH1 0x20 DUP4 ADD DUP8 PUSH2 0xC91 JUMP JUMPDEST PUSH2 0xCF9 PUSH1 0x40 DUP4 ADD DUP7 PUSH2 0xC91 JUMP JUMPDEST PUSH2 0xD06 PUSH1 0x60 DUP4 ADD DUP6 PUSH2 0xC91 JUMP JUMPDEST PUSH2 0xD13 PUSH1 0x80 DUP4 ADD DUP5 PUSH2 0xCBB JUMP JUMPDEST SWAP7 SWAP6 POP POP POP POP POP POP JUMP JUMPDEST PUSH1 0x0 PUSH1 0x20 DUP3 ADD SWAP1 POP PUSH2 0xD32 PUSH1 0x0 DUP4 ADD DUP5 PUSH2 0xCBB JUMP JUMPDEST SWAP3 SWAP2 POP POP JUMP JUMPDEST PUSH1 0x0 DUP1 REVERT JUMPDEST PUSH1 0x0 DUP1 REVERT JUMPDEST PUSH1 0x0 PUSH1 0x1F NOT PUSH1 0x1F DUP4 ADD AND SWAP1 POP SWAP2 SWAP1 POP JUMP JUMPDEST PUSH32 0x4E487B7100000000000000000000000000000000000000000000000000000000 PUSH1 0x0 MSTORE PUSH1 0x41 PUSH1 0x4 MSTORE PUSH1 0x24 PUSH1 0x0 REVERT JUMPDEST PUSH2 0xD8B DUP3 PUSH2 0xD42 JUMP JUMPDEST DUP2 ADD DUP2 DUP2 LT PUSH8 0xFFFFFFFFFFFFFFFF DUP3 GT OR ISZERO PUSH2 0xDAA JUMPI PUSH2 0xDA9 PUSH2 0xD53 JUMP JUMPDEST JUMPDEST DUP1 PUSH1 0x40 MSTORE POP POP POP JUMP JUMPDEST PUSH1 0x0 PUSH2 0xDBD PUSH2 0xB59 JUMP JUMPDEST SWAP1 POP PUSH2 0xDC9 DUP3 DUP3 PUSH2 0xD82 JUMP JUMPDEST SWAP2 SWAP1 POP JUMP JUMPDEST PUSH1 0x0 PUSH8 0xFFFFFFFFFFFFFFFF DUP3 GT ISZERO PUSH2 0xDE9 JUMPI PUSH2 0xDE8 PUSH2 0xD53 JUMP JUMPDEST JUMPDEST PUSH2 0xDF2 DUP3 PUSH2 0xD42 JUMP JUMPDEST SWAP1 POP PUSH1 0x20 DUP2 ADD SWAP1 POP SWAP2 SWAP1 POP JUMP JUMPDEST DUP3 DUP2 DUP4 CALLDATACOPY PUSH1 0x0 DUP4 DUP4 ADD MSTORE POP POP POP JUMP JUMPDEST PUSH1 0x0 PUSH2 0xE21 PUSH2 0xE1C DUP5 PUSH2 0xDCE JUMP JUMPDEST PUSH2 0xDB3 JUMP JUMPDEST SWAP1 POP DUP3 DUP2 MSTORE PUSH1 0x20 DUP2 ADD DUP5 DUP5 DUP5 ADD GT ISZERO PUSH2 0xE3D JUMPI PUSH2 0xE3C PUSH2 0xD3D JUMP JUMPDEST JUMPDEST PUSH2 0xE48 DUP5 DUP3 DUP6 PUSH2 0xDFF JUMP JUMPDEST POP SWAP4 SWAP3 POP POP POP JUMP JUMPDEST PUSH1 0x0 DUP3 PUSH1 0x1F DUP4 ADD SLT PUSH2 0xE65 JUMPI PUSH2 0xE64 PUSH2 0xD38 JUMP JUMPDEST JUMPDEST DUP2 CALLDATALOAD PUSH2 0xE75 DUP5 DUP3 PUSH1 0x20 DUP7 ADD PUSH2 0xE0E JUMP JUMPDEST SWAP2 POP POP SWAP3 SWAP2 POP POP JUMP JUMPDEST PUSH1 0x0 PUSH2 0xE89 DUP3 PUSH2 0xBD0 JUMP JUMPDEST SWAP1 POP SWAP2 SWAP1 POP JUMP JUMPDEST PUSH2 0xE99 DUP2 PUSH2 0xE7E JUMP JUMPDEST DUP2 EQ PUSH2 0xEA4 JUMPI PUSH1 0x0 DUP1 REVERT JUMPDEST POP JUMP JUMPDEST PUSH1 0x0 DUP2 CALLDATALOAD SWAP1 POP PUSH2 0xEB6 DUP2 PUSH2 0xE90 JUMP JUMPDEST SWAP3 SWAP2 POP POP JUMP JUMPDEST PUSH1 0x0 DUP1 PUSH1 0x0 PUSH1 0x60 DUP5 DUP7 SUB SLT ISZERO PUSH2 0xED5 JUMPI PUSH2 0xED4 PUSH2 0xB63 JUMP JUMPDEST JUMPDEST PUSH1 0x0 DUP5 ADD CALLDATALOAD PUSH8 0xFFFFFFFFFFFFFFFF DUP2 GT ISZERO PUSH2 0xEF3 JUMPI PUSH2 0xEF2 PUSH2 0xB68 JUMP JUMPDEST JUMPDEST PUSH2 0xEFF DUP7 DUP3 DUP8 ADD PUSH2 0xE50 JUMP JUMPDEST SWAP4 POP POP PUSH1 0x20 PUSH2 0xF10 DUP7 DUP3 DUP8 ADD PUSH2 0xB8E JUMP JUMPDEST SWAP3 POP POP PUSH1 0x40 PUSH2 0xF21 DUP7 DUP3 DUP8 ADD PUSH2 0xEA7 JUMP JUMPDEST SWAP2 POP POP SWAP3 POP SWAP3 POP SWAP3 JUMP JUMPDEST PUSH1 0x0 DUP2 MLOAD SWAP1 POP SWAP2 SWAP1 POP JUMP JUMPDEST PUSH1 0x0 DUP3 DUP3 MSTORE PUSH1 0x20 DUP3 ADD SWAP1 POP SWAP3 SWAP2 POP POP JUMP JUMPDEST PUSH1 0x0 JUMPDEST DUP4 DUP2 LT ISZERO PUSH2 0xF65 JUMPI DUP1 DUP3 ADD MLOAD DUP2 DUP5 ADD MSTORE PUSH1 0x20 DUP2 ADD SWAP1 POP PUSH2 0xF4A JUMP JUMPDEST DUP4 DUP2 GT ISZERO PUSH2 0xF74 JUMPI PUSH1 0x0 DUP5 DUP5 ADD MSTORE JUMPDEST POP POP POP POP JUMP JUMPDEST PUSH1 0x0 PUSH2 0xF85 DUP3 PUSH2 0xF2B JUMP JUMPDEST PUSH2 0xF8F DUP2 DUP6 PUSH2 0xF36 JUMP JUMPDEST SWAP4 POP PUSH2 0xF9F DUP2 DUP6 PUSH1 0x20 DUP7 ADD PUSH2 0xF47 JUMP JUMPDEST PUSH2 0xFA8 DUP2 PUSH2 0xD42 JUMP JUMPDEST DUP5 ADD SWAP2 POP POP SWAP3 SWAP2 POP POP JUMP JUMPDEST PUSH2 0xFBC DUP2 PUSH2 0xE7E JUMP JUMPDEST DUP3 MSTORE POP POP JUMP JUMPDEST PUSH1 0x0 PUSH1 0xA0 DUP3 ADD SWAP1 POP DUP2 DUP2 SUB PUSH1 0x0 DUP4 ADD MSTORE PUSH2 0xFDC DUP2 DUP9 PUSH2 0xF7A JUMP JUMPDEST SWAP1 POP PUSH2 0xFEB PUSH1 0x20 DUP4 ADD DUP8 PUSH2 0xC91 JUMP JUMPDEST PUSH2 0xFF8 PUSH1 0x40 DUP4 ADD DUP7 PUSH2 0xFB3 JUMP JUMPDEST PUSH2 0x1005 PUSH1 0x60 DUP4 ADD DUP6 PUSH2 0xC67 JUMP JUMPDEST PUSH2 0x1012 PUSH1 0x80 DUP4 ADD DUP5 PUSH2 0xC91 JUMP JUMPDEST SWAP7 SWAP6 POP POP POP POP POP POP JUMP JUMPDEST PUSH1 0x0 DUP2 MLOAD SWAP1 POP SWAP2 SWAP1 POP JUMP JUMPDEST PUSH1 0x0 DUP3 DUP3 MSTORE PUSH1 0x20 DUP3 ADD SWAP1 POP SWAP3 SWAP2 POP POP JUMP JUMPDEST PUSH1 0x0 DUP2 SWAP1 POP PUSH1 0x20 DUP3 ADD SWAP1 POP SWAP2 SWAP1 POP JUMP JUMPDEST PUSH1 0x0 DUP3 DUP3 MSTORE PUSH1 0x20 DUP3 ADD SWAP1 POP SWAP3 SWAP2 POP POP JUMP JUMPDEST PUSH1 0x0 PUSH2 0x1064 DUP3 PUSH2 0xF2B JUMP JUMPDEST PUSH2 0x106E DUP2 DUP6 PUSH2 0x1048 JUMP JUMPDEST SWAP4 POP PUSH2 0x107E DUP2 DUP6 PUSH1 0x20 DUP7 ADD PUSH2 0xF47 JUMP JUMPDEST PUSH2 0x1087 DUP2 PUSH2 0xD42 JUMP JUMPDEST DUP5 ADD SWAP2 POP POP SWAP3 SWAP2 POP POP JUMP JUMPDEST PUSH2 0x109B DUP2 PUSH2 0xB6D JUMP JUMPDEST DUP3 MSTORE POP POP JUMP JUMPDEST PUSH2 0x10AA DUP2 PUSH2 0xE7E JUMP JUMPDEST DUP3 MSTORE POP POP JUMP JUMPDEST PUSH2 0x10B9 DUP2 PUSH2 0xC5B JUMP JUMPDEST DUP3 MSTORE POP POP JUMP JUMPDEST PUSH1 0x0 PUSH1 0xA0 DUP4 ADD PUSH1 0x0 DUP4 ADD MLOAD DUP5 DUP3 SUB PUSH1 0x0 DUP7 ADD MSTORE PUSH2 0x10DC DUP3 DUP3 PUSH2 0x1059 JUMP JUMPDEST SWAP2 POP POP PUSH1 0x20 DUP4 ADD MLOAD PUSH2 0x10F1 PUSH1 0x20 DUP7 ADD DUP3 PUSH2 0x1092 JUMP JUMPDEST POP PUSH1 0x40 DUP4 ADD MLOAD PUSH2 0x1104 PUSH1 0x40 DUP7 ADD DUP3 PUSH2 0x10A1 JUMP JUMPDEST POP PUSH1 0x60 DUP4 ADD MLOAD PUSH2 0x1117 PUSH1 0x60 DUP7 ADD DUP3 PUSH2 0x10B0 JUMP JUMPDEST POP PUSH1 0x80 DUP4 ADD MLOAD PUSH2 0x112A PUSH1 0x80 DUP7 ADD DUP3 PUSH2 0x1092 JUMP JUMPDEST POP DUP1 SWAP2 POP POP SWAP3 SWAP2 POP POP JUMP JUMPDEST PUSH1 0x0 PUSH2 0x1141 DUP4 DUP4 PUSH2 0x10BF JUMP JUMPDEST SWAP1 POP SWAP3 SWAP2 POP POP JUMP JUMPDEST PUSH1 0x0 PUSH1 0x20 DUP3 ADD SWAP1 POP SWAP2 SWAP1 POP JUMP JUMPDEST PUSH1 0x0 PUSH2 0x1161 DUP3 PUSH2 0x101C JUMP JUMPDEST PUSH2 0x116B DUP2 DUP6 PUSH2 0x1027 JUMP JUMPDEST SWAP4 POP DUP4 PUSH1 0x20 DUP3 MUL DUP6 ADD PUSH2 0x117D DUP6 PUSH2 0x1038 JUMP JUMPDEST DUP1 PUSH1 0x0 JUMPDEST DUP6 DUP2 LT ISZERO PUSH2 0x11B9 JUMPI DUP5 DUP5 SUB DUP10 MSTORE DUP2 MLOAD PUSH2 0x119A DUP6 DUP3 PUSH2 0x1135 JUMP JUMPDEST SWAP5 POP PUSH2 0x11A5 DUP4 PUSH2 0x1149 JUMP JUMPDEST SWAP3 POP PUSH1 0x20 DUP11 ADD SWAP10 POP POP PUSH1 0x1 DUP2 ADD SWAP1 POP PUSH2 0x1181 JUMP JUMPDEST POP DUP3 SWAP8 POP DUP8 SWAP6 POP POP POP POP POP POP SWAP3 SWAP2 POP POP JUMP JUMPDEST PUSH1 0x0 PUSH1 0x20 DUP3 ADD SWAP1 POP DUP2 DUP2 SUB PUSH1 0x0 DUP4 ADD MSTORE PUSH2 0x11E5 DUP2 DUP5 PUSH2 0x1156 JUMP JUMPDEST SWAP1 POP SWAP3 SWAP2 POP POP JUMP JUMPDEST PUSH1 0x0 DUP1 PUSH1 0x40 DUP4 DUP6 SUB SLT ISZERO PUSH2 0x1204 JUMPI PUSH2 0x1203 PUSH2 0xB63 JUMP JUMPDEST JUMPDEST PUSH1 0x0 PUSH2 0x1212 DUP6 DUP3 DUP7 ADD PUSH2 0xC19 JUMP JUMPDEST SWAP3 POP POP PUSH1 0x20 PUSH2 0x1223 DUP6 DUP3 DUP7 ADD PUSH2 0xB8E JUMP JUMPDEST SWAP2 POP POP SWAP3 POP SWAP3 SWAP1 POP JUMP JUMPDEST PUSH32 0x4E487B7100000000000000000000000000000000000000000000000000000000 PUSH1 0x0 MSTORE PUSH1 0x32 PUSH1 0x4 MSTORE PUSH1 0x24 PUSH1 0x0 REVERT JUMPDEST PUSH32 0x4E487B7100000000000000000000000000000000000000000000000000000000 PUSH1 0x0 MSTORE PUSH1 0x12 PUSH1 0x4 MSTORE PUSH1 0x24 PUSH1 0x0 REVERT JUMPDEST PUSH32 0x4E487B7100000000000000000000000000000000000000000000000000000000 PUSH1 0x0 MSTORE PUSH1 0x11 PUSH1 0x4 MSTORE PUSH1 0x24 PUSH1 0x0 REVERT JUMPDEST PUSH1 0x0 PUSH2 0x12C5 DUP3 PUSH2 0xB6D JUMP JUMPDEST SWAP2 POP PUSH2 0x12D0 DUP4 PUSH2 0xB6D JUMP JUMPDEST SWAP3 POP DUP3 PUSH2 0x12E0 JUMPI PUSH2 0x12DF PUSH2 0x125C JUMP JUMPDEST JUMPDEST DUP3 DUP3 DIV SWAP1 POP SWAP3 SWAP2 POP POP JUMP JUMPDEST PUSH32 0x4E487B7100000000000000000000000000000000000000000000000000000000 PUSH1 0x0 MSTORE PUSH1 0x22 PUSH1 0x4 MSTORE PUSH1 0x24 PUSH1 0x0 REVERT JUMPDEST PUSH1 0x0 PUSH1 0x2 DUP3 DIV SWAP1 POP PUSH1 0x1 DUP3 AND DUP1 PUSH2 0x1332 JUMPI PUSH1 0x7F DUP3 AND SWAP2 POP JUMPDEST PUSH1 0x20 DUP3 LT DUP2 EQ ISZERO PUSH2 0x1346 JUMPI PUSH2 0x1345 PUSH2 0x12EB JUMP JUMPDEST JUMPDEST POP SWAP2 SWAP1 POP JUMP JUMPDEST PUSH1 0x0 PUSH2 0x1357 DUP3 PUSH2 0xB6D JUMP JUMPDEST SWAP2 POP PUSH32 0xFFFFFFFFFFFFFFFFFFFFFFFFFFFFFFFFFFFFFFFFFFFFFFFFFFFFFFFFFFFFFFFF DUP3 EQ ISZERO PUSH2 0x138A JUMPI PUSH2 0x1389 PUSH2 0x128B JUMP JUMPDEST JUMPDEST PUSH1 0x1 DUP3 ADD SWAP1 POP SWAP2 SWAP1 POP JUMP INVALID LOG2 PUSH5 0x6970667358 0x22 SLT KECCAK256 0x5F INVALID CALLDATACOPY PUSH10 0xFB0359461BC92E0C637A 0x2D 0xF9 PUSH21 0xE58A24F2D498D9BC23A74AD1675A8A64736F6C6343 STOP ADDMOD 0xC STOP CALLER "},"gasEstimates":{"creation":{"codeDepositCost":"1013400","executionCost":"infinite","totalCost":"infinite"},"external":{"approvals(address,uint256)":"3175","approveRequest(uint256)":"infinite","approvers(address)":"2868","approversCount()":"2540","contribute()":"50983","createPaymentRequest(string,uint256,address)":"infinite","finalizeRequest(uint256)":"infinite","getAllRequests()":"infinite","getRequestsCount()":"2490","getSummary()":"infinite","manager()":"2603","minimumContribution()":"2452","paymentRequests(uint256)":"infinite"}},"methodIdentifiers":{"approvals(address,uint256)":"ffabc673","approveRequest(uint256)":"d7d1bbdb","approvers(address)":"0a144391","approversCount()":"82fde093","contribute()":"d7bb99ba","createPaymentRequest(string,uint256,address)":"a87f62e4","finalizeRequest(uint256)":"03441006","getAllRequests()":"fb1a002a","getRequestsCount()":"3410452a","getSummary()":"4051ddac","manager()":"481c6a75","minimumContribution()":"937e09b1","paymentRequests(uint256)":"d4358800"}},"storageLayout":{"storage":[{"astId":55,"contract":"Campaign.sol:Campaign","label":"paymentRequests","offset":0,"slot":"0","type":"t_array(t_struct(PaymentRequest)51_storage)dyn_storage"},{"astId":57,"contract":"Campaign.sol:Campaign","label":"manager","offset":0,"slot":"1","type":"t_address"},{"astId":59,"contract":"Campaign.sol:Campaign","label":"minimumContribution","offset":0,"slot":"2","type":"t_uint256"},{"astId":63,"contract":"Campaign.sol:Campaign","label":"approvers","offset":0,"slot":"3","type":"t_mapping(t_address,t_bool)"},{"astId":65,"contract":"Campaign.sol:Campaign","label":"approversCount","offset":0,"slot":"4","type":"t_uint256"},{"astId":71,"contract":"Campaign.sol:Campaign","label":"approvals","offset":0,"slot":"5","type":"t_mapping(t_address,t_mapping(t_uint256,t_bool))"}],"types":{"t_address":{"encoding":"inplace","label":"address","numberOfBytes":"20"},"t_address_payable":{"encoding":"inplace","label":"address payable","numberOfBytes":"20"},"t_array(t_struct(PaymentRequest)51_storage)dyn_storage":{"base":"t_struct(PaymentRequest)51_storage","encoding":"dynamic_array","label":"struct Campaign.PaymentRequest[]","numberOfBytes":"32"},"t_bool":{"encoding":"inplace","label":"bool","numberOfBytes":"1"},"t_mapping(t_address,t_bool)":{"encoding":"mapping","key":"t_address","label":"mapping(address => bool)","numberOfBytes":"32","value":"t_bool"},"t_mapping(t_address,t_mapping(t_uint256,t_bool))":{"encoding":"mapping","key":"t_address","label":"mapping(address => mapping(uint256 => bool))","numberOfBytes":"32","value":"t_mapping(t_uint256,t_bool)"},"t_mapping(t_uint256,t_bool)":{"encoding":"mapping","key":"t_uint256","label":"mapping(uint256 => bool)","numberOfBytes":"32","value":"t_bool"},"t_string_storage":{"encoding":"bytes","label":"string","numberOfBytes":"32"},"t_struct(PaymentRequest)51_storage":{"encoding":"inplace","label":"struct Campaign.PaymentRequest","members":[{"astId":42,"contract":"Campaign.sol:Campaign","label":"description","offset":0,"slot":"0","type":"t_string_storage"},{"astId":44,"contract":"Campaign.sol:Campaign","label":"value","offset":0,"slot":"1","type":"t_uint256"},{"astId":46,"contract":"Campaign.sol:Campaign","label":"recipient","offset":0,"slot":"2","type":"t_address_payable"},{"astId":48,"contract":"Campaign.sol:Campaign","label":"complete","offset":20,"slot":"2","type":"t_bool"},{"astId":50,"contract":"Campaign.sol:Campaign","label":"approvalCount","offset":0,"slot":"3","type":"t_uint256"}],"numberOfBytes":"128"},"t_uint256":{"encoding":"inplace","label":"uint256","numberOfBytes":"32"}}},"userdoc":{"kind":"user","methods":{},"version":1}}